{
  "address": "0xBC4Be7cA45e84E5a30abF72Af4D40d5d5611F666",
  "abi": [
    {
      "anonymous": false,
      "inputs": [
        {
          "indexed": false,
          "internalType": "address",
          "name": "daoAddress",
          "type": "address"
        }
      ],
      "name": "DaoCreated",
      "type": "event"
    },
    {
      "inputs": [
        {
          "internalType": "address",
          "name": "tokenAddress",
          "type": "address"
        },
        {
          "internalType": "uint256",
          "name": "tokenCollateral",
          "type": "uint256"
        }
      ],
      "name": "createDao",
      "outputs": [],
      "stateMutability": "nonpayable",
      "type": "function"
    },
    {
      "inputs": [],
      "name": "defaultChallengePeriodSeconds",
      "outputs": [
        {
          "internalType": "uint256",
          "name": "",
          "type": "uint256"
        }
      ],
      "stateMutability": "view",
      "type": "function"
    },
    {
      "inputs": [],
      "name": "defaultExtendChallengePeriodSeconds",
      "outputs": [
        {
          "internalType": "uint256",
          "name": "",
          "type": "uint256"
        }
      ],
      "stateMutability": "view",
      "type": "function"
    },
    {
      "inputs": [],
      "name": "nativeCollateral",
      "outputs": [
        {
          "internalType": "uint256",
          "name": "",
          "type": "uint256"
        }
      ],
      "stateMutability": "view",
      "type": "function"
    }
  ],
  "transactionHash": "0x0fe9e51f60c151025f4cffc584a4069d2b367fcf89be4426012e89ac0d020857",
  "args": [],
  "numDeployments": 2,
  "solcInputHash": "96f904833b989feaaadfd138f713a52b",
  "bytecode": "0x60808060405234610016576135ff908161001c8239f35b600080fdfe60806040818152600436101561001457600080fd5b600091823560e01c9081630f11b679146101bf575080631591a25a146101a25780634ddd4b3d1461006e5763773fd6e21461004e57600080fd5b3461006a578160031936011261006a57602090516203f4808152f35b5080fd5b503461006a578060031936011261006a576001600160a01b036004358181169081900361019e578251906133e8908183019183831067ffffffffffffffff84111761018a5791839160a0936101e28439815260243560208201526203f4808682015267016345785d8a0000606082015262015180608082015203019084f0801561017e5716908254600160401b81101561016a576001810180855581101561015657838052602080852090910180546001600160a01b0319168417905590519182527f87fc1796dbc913ab997ce574688bcad88f5eb317373be9ec71de2bde33e5c83091a180f35b634e487b7160e01b84526032600452602484fd5b634e487b7160e01b84526041600452602484fd5b505051903d90823e3d90fd5b634e487b7160e01b87526041600452602487fd5b8380fd5b503461006a578160031936011261006a5760209051620151808152f35b83903461006a578160031936011261006a578067016345785d8a000060209252f3fe60a03461011c57601f6133e838819003918201601f1916830192916001600160401b039182851184861017610106578160a0928592604097885283398101031261011c5781516001600160a01b03928382169182900361011c576020810151908581015160806060830151920151926001600055600255600355600455600555835191610f459081840190848210908211176101065760209284926124a3843981520301906000f09081156100fb57816020917f7e674bfd363a04ca3284fe16b63779e4dd9680669b56efb94d86fd1e95d2e13b93608052845191168152a1516123819081610122823960805181818161044001526106dd0152f35b82513d6000823e3d90fd5b634e487b7160e01b600052604160045260246000fd5b600080fdfe60808060405260043610156200001f575b5036156200001d57600080fd5b005b600090813560e01c9081630f11b67914620008b95750806313725f7d14620007f3578063150b7a02146200078c57806330b47293146200070c57806333e0ff5d14620006c55780633c28b73c14620006a95780634b915bfb14620002de57806361fd18c014620001e25780637347d0f414620001c65780638148232814620001a6578063c6227bb01462000136578063d89cf44a1462000116578063e84dce3014620000f25763fb60129403620000105734620000ef5780600319360112620000ef576020600354604051908152f35b80fd5b5034620000ef57620001106200010836620009f4565b919062000a4e565b60035580f35b5034620000ef5780600319360112620000ef576020600554604051908152f35b5034620000ef576020366003190112620000ef57600435906001600160401b038211620000ef5760206200016e366004850162000923565b8162000184604051928381519384920162000a29565b600190820190815281900382019020546040516001600160a01b039091168152f35b5034620000ef5780600319360112620000ef576020600254604051908152f35b5034620000ef57620001dc6200010836620009f4565b60025580f35b5034620000ef576200020860206044620001fc366200099a565b91939295909562000a4e565b60405163a9059cbb60e01b81526001600160a01b039586166004820152602481019190915293849283918791165af1908115620002d35782916200028e575b5015620002515780f35b60405162461bcd60e51b8152602060048201526015602482015274115490cc8c081d1c985b9cd9995c8819985a5b1959605a1b6044820152606490fd5b90506020813d8211620002ca575b81620002ab6020938362000901565b81010312620002c657518015158103620002c6573862000247565b5080fd5b3d91506200029c565b6040513d84823e3d90fd5b506060366003190112620000ef576004356001600160401b038111620002c6576200030e90369060040162000923565b6001600160401b0360443511620002c657366023604435011215620002c6576001600160401b036044356004013511620002c6573660246044356004013560051b604435010111620002c657600282541462000664576002825560405181516200037d81836020860162000a29565b60019082019081528190036020019020546001600160a01b0316620006255760045490600254916003549060055493604051928361183f8101106001600160401b0361183f860111176200061157908693929161183f62000b0d85396024803561183f860190815233602082015260408101949094526060840192909252608083015261010060a08301819052604435600481013591840182905261012060059290921b84018201939201918591015b60443560040135821062000588575050507f00000000000000000000000000000000000000000000000000000000000000006001600160a01b031661183f830160c0810182905260e001959095528190039034f09283156200057b576040516020818551620004a08183858a0162000a29565b60019082019081520301902080546001600160a01b0319166001600160a01b039095169485179055803b15620002c65781809160246040518094819363019aa7d560e11b83528960048401525af18015620002d3576200055f575b505060607f49a1ee521a2f809b640c136b45f70eb7b0313e8c1323b85aa65da093f689589d926040519283916040835262000546825180938160408701526020878701910162000a29565b6020830152601f01601f19168101030190a16001815580f35b6200056a90620008d7565b62000577578238620004fb565b8280fd5b50604051903d90823e3d90fd5b919394509161011f1961183f86018203018252604219604435360301843512156200060d5760443584350190604460248301359201916001600160401b0381116200060957803603831362000609576020828280600196849695859652848401378c838284010152601f80199101160101950192019201879493926200042d565b8980fd5b8780fd5b634e487b7160e01b87526041600452602487fd5b60405162461bcd60e51b815260206004820152601760248201527650726f706f73616c20616c72656164792065786973747360481b6044820152606490fd5b60405162461bcd60e51b815260206004820152601f60248201527f5265656e7472616e637947756172643a207265656e7472616e742063616c6c006044820152606490fd5b5034620000ef57620006bf6200010836620009f4565b60045580f35b5034620000ef5780600319360112620000ef576040517f00000000000000000000000000000000000000000000000000000000000000006001600160a01b03168152602090f35b5034620000ef576200072d8162000723366200099a565b9490919262000a4e565b6001600160a01b0391821690813b156200078857836064926040519687958694632142170760e11b865230600487015216602485015260448401525af18015620002d3576200077a575080f35b6200078590620008d7565b80f35b8380fd5b5034620000ef576080366003190112620000ef576004356001600160a01b03811603620000ef57620007bd62000983565b506064356001600160401b038111620002c657620007e090369060040162000923565b50604051630a85bd0160e11b8152602090f35b5034620000ef576060366003190112620000ef576004356001600160401b038111620002c6576200082990369060040162000923565b6200083362000983565b604435906001600160a01b03168015620008825783808080948194620008598862000a4e565b82821562000878575bf1156200086c5780f35b604051903d90823e3d90fd5b506108fc62000862565b60405162461bcd60e51b815260206004820152600f60248201526e496e76616c6964206164647265737360881b6044820152606490fd5b905034620002c65781600319360112620002c6576020906004548152f35b6001600160401b038111620008eb57604052565b634e487b7160e01b600052604160045260246000fd5b90601f801991011681019081106001600160401b03821117620008eb57604052565b81601f820112156200097e578035906001600160401b038211620008eb57604051926200095b601f8401601f19166020018562000901565b828452602083830101116200097e57816000926020809301838601378301015290565b600080fd5b602435906001600160a01b03821682036200097e57565b60806003198201126200097e57600435906001600160401b0382116200097e57620009c89160040162000923565b906001600160a01b039060243582811681036200097e579160443590811681036200097e579060643590565b60406003198201126200097e57600435906001600160401b0382116200097e5762000a229160040162000923565b9060243590565b60005b83811062000a3d5750506000910152565b818101518382015260200162000a2c565b602062000a65604051928381519384920162000a29565b60019082019081528190036020019020546001600160a01b0316801562000acd57330362000a8f57565b60405162461bcd60e51b815260206004820152601660248201527513db9b1e481c1c9bdc1bdcd85b0818d85b8818d85b1b60521b6044820152606490fd5b60405162461bcd60e51b8152602060048201526017602482015276141c9bdc1bdcd85b08191bd95cc81b9bdd08195e1a5cdd604a1b6044820152606490fdfe6101a06040526200183f6200001681380362000611565b8061016052818038039139610160518138038101610100828203126200019e5781516101805260208201516001600160a01b03811681036200019e57604083015193606084015160808501519360a08601519560018060401b0387116200019e57860190601f820112156200019e5751956001600160401b0387116200053957620000a760208860051b0162000611565b936020858981520194859061016051863803810160208c60051b8c84010101116200019e578901602001965b6101605160208c60051b8c83010101891015620001b8578851906001600160401b0382116200019e57818c8201019089380301603f820112156200019e57602001516001600160401b038111620001a3578b91896040838362000140601f8301601f191660200162000611565b968288526101605194380385019401010101116200019e5760005b8d838210620001805750505091816000602080958195010152815201970196620000d3565b9060408184602094610160510101010151828287010152016200015b565b600080fd5b60246000634e487b7160e01b81526041600452fd5b50506101605160c08101519589916001600160a01b03881688036200019e5760e0015160016000556006805460ff19169055956001600160a01b03861615620005da57610180516080528560a05260c05260e05260015551906801000000000000000082116200053957600254826002558083106200054f575b50600260009081526000805160206200181f83398151915292915b828210620004075750505050610140914283526101209360018060a01b03168452336101005260075560c0513410620003c25760c0518015620003675734066200037d5760c0518015620003675734049060018060a01b03166000526005602052806040600020556003556040519061119192836200068e843960805183610695015260a051838181610a6d0152610d5d015260c0518381816105630152818161084201528181610aef0152610e06015260e0518381816102b4015261071a015261010051838181610a290152610dc001525182818161026f0152610cf50152518181816101d701528181610228015281816104a2015281816106d501528181610814015281816109cd015281816110a201526111210152f35b634e487b7160e01b600052601260045260246000fd5b60405162461bcd60e51b815260206004820152601460248201527f436f6c6c61746572616c20696e636f72726563740000000000000000000000006044820152606490fd5b60405162461bcd60e51b815260206004820152601460248201527f436f6c6c61746572616c20746f6f20736d616c6c0000000000000000000000006044820152606490fd5b80518051906001600160401b038211620005395762000427865462000637565b601f8111620004f7575b50602090601f83116001146200048257928260019493602093869560009262000476575b5050600019600383901b1c191690841b1787555b019401910190926200024d565b015190508c8062000455565b908660005260206000209160005b601f1985168110620004de575083602093600196938796938794601f19811610620004c4575b505050811b01875562000469565b015160001960f88460031b161c191690558c8080620004b6565b9192602060018192868501518155019401920162000490565b6200052790876000526020600020601f850160051c810191602086106200052e575b601f0160051c019062000674565b8962000431565b909150819062000519565b634e487b7160e01b600052604160045260246000fd5b60026000526000805160206200181f8339815191529081019083015b8181106200057a575062000232565b80620005896001925462000637565b8062000598575b50016200056b565b601f81118314620005b05750600081555b8862000590565b600090828252620005d0601f60208420920160051c820185830162000674565b81835555620005a9565b60405162461bcd60e51b815260206004820152600f60248201526e496e76616c6964206164647265737360881b6044820152606490fd5b6040519190601f01601f191682016001600160401b038111838210176200053957604052565b90600182811c9216801562000669575b60208310146200065357565b634e487b7160e01b600052602260045260246000fd5b91607f169162000647565b81811062000680575050565b600081556001016200067456fe608060408181526004918236101561001657600080fd5b600092833560e01c9182630f11b67914610def575081632131c68c14610dab578163279dbe0714610d8c5781632cee6a6b14610d4857816331a38c8914610d2457816333e0ff5d14610ce0578163373058b8146109b257816338d7497d1461098c5781634b9f5c98146107ed5781636545645b1461073d5781638148232814610702578163a4fd6f56146106b8578163ada9e4441461067d578163b88a802f1461048a578163ce583e92146101fa578163cea3e530146101bf578163d89cf44a146101a0578163d8bff5a514610144578163efc8514c14610122575063fb6012941461010157600080fd5b3461011e578160031936011261011e576020906001549051908152f35b5080fd5b90503461014057826003193601126101405760209250549051908152f35b8280fd5b90503461014057602036600319011261014057356001600160a01b038116908190036101405782829160809452600560205220908154916001810154916003600283015492015492815194855260208501528301526060820152f35b50503461011e578160031936011261011e576020906007549051908152f35b50503461011e578160031936011261011e57602090517f00000000000000000000000000000000000000000000000000000000000000008152f35b905034610140576020918260031936011261048657813591821515908184036104825761025461024c6001547f0000000000000000000000000000000000000000000000000000000000000000610e29565b421115610e4c565b61025c611099565b82516370a0823160e01b815233828201527f00000000000000000000000000000000000000000000000000000000000000006001600160a01b0316908681602481855afa8015610478578890610445575b6102d991507f000000000000000000000000000000000000000000000000000000000000000090610eb5565b94851561040557908792913384526005885285842087600282019182541593846103f8575b156103d95750610318828261031d94549155600354610f11565b610e29565b6003555b610365575b827f2f9952040a017f53cb65506910abf3e4adbfb209f705fa9d0f89dea21f5c9e8360808989898981519333855284015282015260016060820152a180f35b803b15610140578290604486518095819363bd041c4d60e01b835233878401528860248401525af180156103cf5761039f575b8691610326565b6001600160401b0382979397116103bc5750825293816080610398565b634e487b7160e01b835260419052602482fd5b84513d89823e3d90fd5b6103f192506003610318910182815491558654610f11565b8355610321565b60038201541594506102fe565b845162461bcd60e51b8152808401889052601a602482015279151bdad95b8818dbdb1b185d195c985b081d1bdbc81cdb585b1b60321b6044820152606490fd5b508681813d8311610471575b61045b8183610ef0565b8101031261046d576102d990516102ad565b8780fd5b503d610451565b85513d8a823e3d90fd5b8580fd5b8380fd5b905082600319360112610140576104cd6104c66001547f0000000000000000000000000000000000000000000000000000000000000000610e29565b4211610f1e565b3383526005602052818320908251906104e582610ebf565b8254825260018301549160208101928352600360028501549486830195865201549360608201948552610516611119565b94851561066857508151905161052b91610e29565b905b811561063257926105ac6105b9936105a76105b2946105a18b99988960001461062a57600354945b8a156106205754905b6105897f00000000000000000000000000000000000000000000000000000000000000008093610f6a565b97610594878a610e95565b9b15610618575051610f6a565b94610f6a565b610eb5565b90610e29565b9182610e29565b4714610611575b8180809233825260056020526105ea86832060036000918281558260018201558260028201550155565b818115610608575b3390f1156105fe575080f35b51903d90823e3d90fd5b506108fc6105f2565b50476105c0565b905051610f6a565b506003549061055e565b845494610555565b855162461bcd60e51b8152602081850152601060248201526f526577617264206e6f74206170706c7960801b6044820152606490fd5b61067791508451905190610e29565b9061052d565b50503461011e578160031936011261011e57602090517f00000000000000000000000000000000000000000000000000000000000000008152f35b50503461011e578160031936011261011e576020906106f96001547f0000000000000000000000000000000000000000000000000000000000000000610e29565b42119051908152f35b50503461011e578160031936011261011e57602090517f00000000000000000000000000000000000000000000000000000000000000008152f35b8284346107ea57806003193601126107ea5790610758610f7d565b8151928392602080850190808652845180925280838701938360051b880101950193805b8382106107895787870388f35b9193959092949650603f19888203018652838751805190818452845b8281106107d657505081838286838095600198010152601f801991011601019801960192018796959492939161077c565b8181018401518582018501528793016107a5565b80fd5b9050602036600319011261014057803591821515928381036109885761083861024c6001547f0000000000000000000000000000000000000000000000000000000000000000610e29565b610840611099565b7f000000000000000000000000000000000000000000000000000000000000000080341061094e576108728134610e95565b6109145791608093916108a77f2f9952040a017f53cb65506910abf3e4adbfb209f705fa9d0f89dea21f5c9e83969434610eb5565b923388526005602052828820916000146108f157506108c7838254610e29565b90556108d582600354610e29565b6003555b8051923384526020840152820152836060820152a180f35b90600101610900848254610e29565b905561090d838254610e29565b90556108d9565b825162461bcd60e51b8152602081860152601460248201527310dbdb1b185d195c985b081a5b98dbdc9c9958dd60621b6044820152606490fd5b825162461bcd60e51b8152602081860152601460248201527310dbdb1b185d195c985b081d1bdbc81cdb585b1b60621b6044820152606490fd5b8480fd5b50503461011e578160031936011261011e576020906109a9611119565b90519015158152f35b91905082600319360112610140576001916109f16104c684547f0000000000000000000000000000000000000000000000000000000000000000610e29565b6002845414610c9e576002845560065460ff8116610c5f57610a11611119565b15610c245760ff19168317600655610a27610f7d565b7f000000000000000000000000000000000000000000000000000000000000000085855b610b36575b5050505415610a60575b50815580f35b8280808060018060a01b037f0000000000000000000000000000000000000000000000000000000000000000168082526005602052610b148683206003885191610aa983610ebf565b805483528a810154602084015260028101548a840152015460608201528284526005602052610aec88852060036000918281558260018201558260028201550155565b517f000000000000000000000000000000000000000000000000000000000000000090610f6a565b90828215610b2d575bf1610a5a5751913d9150823e3d90fd5b506108fc610b1d565b8251811015610c1f5760208780828460051b87010151838151910182875af13d15610c1a573d6001600160401b038111610c0757875190610b80601f8201601f1916850183610ef0565b815289833d92013e5b15610bb357506000198114610ba057850185610a4b565b634e487b7160e01b875260118452602487fd5b8460849187519162461bcd60e51b8352820152602960248201527f50726f706f73616c3a20756e6465726c79696e67207472616e73616374696f6e604482015268081c995d995c9d195960ba1b6064820152fd5b634e487b7160e01b8a526041875260248afd5b610b89565b610a50565b506020606492519162461bcd60e51b8352820152601560248201527450726f706f73616c20646964206e6f74207061737360581b6044820152fd5b506020606492519162461bcd60e51b83528201526019602482015278141c9bdc1bdcd85b08185b1c9958591e48195e1958dd5d1959603a1b6044820152fd5b6020606492519162461bcd60e51b8352820152601f60248201527f5265656e7472616e637947756172643a207265656e7472616e742063616c6c006044820152fd5b50503461011e578160031936011261011e57517f00000000000000000000000000000000000000000000000000000000000000006001600160a01b03168152602090f35b50503461011e578160031936011261011e5760209060ff6006541690519015158152f35b50503461011e578160031936011261011e57517f00000000000000000000000000000000000000000000000000000000000000006001600160a01b03168152602090f35b50503461011e578160031936011261011e576020906003549051908152f35b50503461011e578160031936011261011e57517f00000000000000000000000000000000000000000000000000000000000000006001600160a01b03168152602090f35b84903461011e578160031936011261011e576020907f00000000000000000000000000000000000000000000000000000000000000008152f35b91908201809211610e3657565b634e487b7160e01b600052601160045260246000fd5b15610e5357565b60405162461bcd60e51b815260206004820152601a602482015279125cc81b9bdd081a5b8818da185b1b195b99d9481c195c9a5bd960321b6044820152606490fd5b8115610e9f570690565b634e487b7160e01b600052601260045260246000fd5b8115610e9f570490565b608081019081106001600160401b03821117610eda57604052565b634e487b7160e01b600052604160045260246000fd5b90601f801991011681019081106001600160401b03821117610eda57604052565b91908203918211610e3657565b15610f2557565b60405162461bcd60e51b815260206004820152601d60248201527f4973206e6f74206166746572206368616c6c656e676520706572696f640000006044820152606490fd5b81810292918115918404141715610e3657565b600254906001600160401b038211610eda5760408051926005916020610fa783851b820187610ef0565b82865280860190600092600284528184209084935b868510610fcd575050505050505050565b8151869184549160019280841c90848116801561108f575b898310811461107b5782845289949392918e90821561105d575050600114611025575b50611017816001960382610ef0565b815201930194019391610fbc565b878b52838b2095508a905b8082106110465750810183019450611017611008565b865483830186015295850195899490910190611030565b60ff19168685015291151590911b8201840195506110179050611008565b634e487b7160e01b8c52602260045260248cfd5b91607f1691610fe5565b6001546110c6817f0000000000000000000000000000000000000000000000000000000000000000610e29565b610e0f198101908111610e365742116110dc5750565b60207f3cca71a947cd4d67d94cd84308fae5f35b54a8fc120b9522b9ede48f41954e7b9161110d6007548092610e29565b600155604051908152a1565b6111456001547f0000000000000000000000000000000000000000000000000000000000000000610e29565b421115611156576003546004541090565b60009056fea26469706673582212204688f83dc90825d5d4df15255eaa9359f3eb12798c2e7163f480bc2e9cf4fb7e64736f6c63430008120033405787fa12a823e0f2b7631cc41b3ba8828b3321ca811111fa75cd3aa3bb5acea2646970667358221220f5e599da3042d72d78b4b67af6785665035e82add906debb4928663262c4653864736f6c6343000812003360a0346100bd57601f610f4538819003918201601f19168301916001600160401b038311848410176100c2578084926020946040528339810103126100bd57516001600160a01b0390818116908190036100bd576000543360018060a01b0319821617600055604051923391167f8be0079c531659141344cd1fd0a4f28419497f9722a3daafe3b4186f6b6457e0600080a3608052610e6c90816100d9823960805181818160dc0152818161043f015281816107310152610a4f0152f35b600080fd5b634e487b7160e01b600052604160045260246000fdfe608060408181526004918236101561001657600080fd5b600092833560e01c918262f714ce146109a25750816303354faa1461096157816314ca6a971461091b57816327e235e3146108a6578163539e580a146108de57816370a08231146108a6578163715018a61461084c5781638cc6651f146108145781638da5cb5b146107ec578163b6b55f25146106f7578163bd041c4d146105b3578163d76add1214610231578163ec0d7b27146101d6578163f2fde38b1461010f575063fc0c546a146100c957600080fd5b3461010b578160031936011261010b57517f00000000000000000000000000000000000000000000000000000000000000006001600160a01b03168152602090f35b5080fd5b9050346101d25760203660031901126101d25761012a610b83565b90610133610be2565b6001600160a01b0391821692831561018057505082546001600160a01b0319811683178455167f8be0079c531659141344cd1fd0a4f28419497f9722a3daafe3b4186f6b6457e08380a380f35b906020608492519162461bcd60e51b8352820152602660248201527f4f776e61626c653a206e6577206f776e657220697320746865207a65726f206160448201526564647265737360d01b6064820152fd5b8280fd5b50503461010b57602036600319011261010b5761022d9161021c91906102239082906001600160a01b03610208610b83565b168152600260205220825193848092610d2f565b0383610d75565b5191829182610b9e565b0390f35b905082346105b0576020928360031936011261010b576001600160a01b039384610259610b83565b169485845284825261027060ff8486205416610c3a565b825163527eb7ab60e11b8152828187818a5afa9081156105a6578591610589575b50156105515782516338d7497d60e01b8082529590838183818b5afa908115610518579061021c92918791610534575b501561052257878652600284526102e08587205b865193848092610d2f565b8597865b83518110156103325780856102fc61032d9387610ded565b51169a8b8a52610315600591828a528a8c205490610d22565b9b8a5287528888812055600387528888812055610c7e565b6102e4565b5096909791508451908152838189818a5afa908115610518579061021c929187916104fb575b50156104e95786865260018452610376858720865193848092610d2f565b855b82518110156103c8578361038c8285610ded565b511687526003855285872080546000198101919082116103b557556103b090610c7e565b610378565b634e487b7160e01b895260118b52602489fd5b8689868861043b82878a8f808952600184526103e5868a20610e01565b808952600284526103f7868a20610e01565b885286835284882060ff1981541690558088541688865180968195829463a9059cbb60e01b84528c840160209093929193604081019460018060a01b031681520152565b03927f0000000000000000000000000000000000000000000000000000000000000000165af19081156104df5785916104b2575b5015610479578380f35b5162461bcd60e51b8152918201526015602482015274151bdad95b881d1c985b9cd9995c8819985a5b1959605a1b604482015260649150fd5b6104d29150833d85116104d8575b6104ca8183610d75565b810190610d97565b8561046f565b503d6104c0565b82513d87823e3d90fd5b868652600284526103768587206102d5565b6105129150853d87116104d8576104ca8183610d75565b89610358565b85513d88823e3d90fd5b878652600184526102e08587206102d5565b61054b9150853d87116104d8576104ca8183610d75565b896102c1565b825162461bcd60e51b81528086018390526012602482015271141c9bdc1bdcd85b081b9bdd08195b99195960721b6044820152606490fd5b6105a09150833d85116104d8576104ca8183610d75565b87610291565b84513d87823e3d90fd5b80fd5b8391503461010b578260031936011261010b576105ce610b83565b602490813580151581036106f3573385526020918483526105f460ff8888205416610c3a565b81156106e157338652600183528686209591955b6001600160a01b03828116939092815b835481101561067a57858561062d8387610ca3565b90549060031b1c16146106485761064390610c7e565b610618565b8a5162461bcd60e51b8152808a01889052600d818a01526c105b1c9958591e481d9bdd1959609a1b6044820152606490fd5b50868a600388888c958e6000146106c95761069e9033895260018452858920610cd1565b865252832090815492600184018094116106b85750505580f35b634e487b7160e01b85526011905283fd5b6106dc9033895260028452858920610cd1565b61069e565b33865260028352868620959195610608565b8480fd5b9050346101d257602090816003193601126107e85781813533865260058252848620610724828254610d22565b9055606460018060a01b037f000000000000000000000000000000000000000000000000000000000000000016938487518481527fcbc4a4091b012bb1329c38bbbb15455f5cac5aa3673da0a7f38cd61a4f495517863392a387875195869485936323b872dd60e01b8552339085015230602485015260448401525af19182156107db576107bb935084926107be575b5050610daf565b80f35b6107d49250803d106104d8576104ca8183610d75565b38806107b4565b50505051903d90823e3d90fd5b8380fd5b50503461010b578160031936011261010b57905490516001600160a01b039091168152602090f35b50503461010b57602036600319011261010b5760209181906001600160a01b0361083c610b83565b1681526003845220549051908152f35b83346105b057806003193601126105b057610865610be2565b80546001600160a01b03198116825581906001600160a01b03167f8be0079c531659141344cd1fd0a4f28419497f9722a3daafe3b4186f6b6457e08280a380f35b50503461010b57602036600319011261010b5760209181906001600160a01b036108ce610b83565b1681526005845220549051908152f35b9050346101d25760203660031901126101d25760209260ff918391906001600160a01b0361090a610b83565b168252855220541690519015158152f35b50503461010b57602036600319011261010b5761022d9161021c91906102239082906001600160a01b0361094d610b83565b168152600160205220825193848092610d2f565b9050346101d25760203660031901126101d25761097c610b83565b610984610be2565b6001600160a01b031683526020528120805460ff1916600117905580f35b909150346107e857826003193601126107e8576024356001600160a01b0381811694843593929091868203610b7f573388526020936003855283892054610b42575033885260058452848389205410610b085733885260058452828820805490868203918211610af55791869391869355338a526005835289858120805415610aed575b5050845163a9059cbb60e01b81526001600160a01b0390921697820197885260208801939093527f000000000000000000000000000000000000000000000000000000000000000092909216958290819060400103818a895af1908115610ae3577f4e5ba90310f16273bb12f3c33f23905e573b86df58a2895a525285d083bf043f939291610abc918991610ac6575b50610daf565b519283523392a480f35b610add9150843d86116104d8576104ca8183610d75565b38610ab6565b82513d89823e3d90fd5b558938610a26565b634e487b7160e01b8a526011885260248afd5b825162461bcd60e51b81528087018590526014602482015273496e73756666696369656e742062616c616e636560601b6044820152606490fd5b62461bcd60e51b815286810185905260196024820152785573657220686173206163746976652070726f706f73616c7360381b6044820152606490fd5b8780fd5b600435906001600160a01b0382168203610b9957565b600080fd5b6020908160408183019282815285518094520193019160005b828110610bc5575050505090565b83516001600160a01b031685529381019392810192600101610bb7565b6000546001600160a01b03163303610bf657565b606460405162461bcd60e51b815260206004820152602060248201527f4f776e61626c653a2063616c6c6572206973206e6f7420746865206f776e65726044820152fd5b15610c4157565b60405162461bcd60e51b8152602060048201526015602482015274141c9bdc1bdcd85b081b9bdd08185c1c1c9bdd9959605a1b6044820152606490fd5b6000198114610c8d5760010190565b634e487b7160e01b600052601160045260246000fd5b8054821015610cbb5760005260206000200190600090565b634e487b7160e01b600052603260045260246000fd5b8054600160401b811015610d0c57610cee91600182018155610ca3565b819291549060031b9160018060a01b03809116831b921b1916179055565b634e487b7160e01b600052604160045260246000fd5b91908201809211610c8d57565b90815480825260208092019260005281600020916000905b828210610d55575050505090565b83546001600160a01b031685529384019360019384019390910190610d47565b90601f8019910116810190811067ffffffffffffffff821117610d0c57604052565b90816020910312610b9957518015158103610b995790565b15610db657565b60405162461bcd60e51b815260206004820152600f60248201526e151c985b9cd9995c8819985a5b1959608a1b6044820152606490fd5b8051821015610cbb5760209160051b010190565b80549060009081815582610e1457505050565b815260208120918201915b828110610e2b57505050565b818155600101610e1f56fea2646970667358221220ce6840d56bf11a1a9ae1cc0c99aefd9997c3d9a45eaaa22bd6b3ad205732356864736f6c63430008120033a26469706673582212202da3ed23ce8f6b5204ff3d730ed14f6027cd3c6d194f2a38179febc07bec220364736f6c63430008120033",
  "devdoc": {
    "kind": "dev",
    "methods": {},
    "version": 1
  },
  "userdoc": {
    "kind": "user",
    "methods": {},
    "version": 1
  },
  "storageLayout": {
    "storage": [
      {
        "astId": 1560,
        "contract": "contracts/dao/factory/ERC20DaoFactory.sol:ERC20DaoFactory",
        "label": "daos",
        "offset": 0,
        "slot": "0",
        "type": "t_array(t_contract(Dao)1443)dyn_storage"
      }
    ],
    "types": {
      "t_array(t_contract(Dao)1443)dyn_storage": {
        "base": "t_contract(Dao)1443",
        "encoding": "dynamic_array",
        "label": "contract Dao[]",
        "numberOfBytes": "32"
      },
      "t_contract(Dao)1443": {
        "encoding": "inplace",
        "label": "contract Dao",
        "numberOfBytes": "20"
      }
    }
  }
}