{
  "address": "0xf95fE68E1D115D19759Bdd2179218c827b8d7Ff0",
  "abi": [
    {
      "anonymous": false,
      "inputs": [
        {
          "indexed": false,
          "internalType": "address",
          "name": "daoAddress",
          "type": "address"
        }
      ],
      "name": "DaoCreated",
      "type": "event"
    },
    {
      "inputs": [
        {
          "internalType": "address",
          "name": "tokenAddress",
          "type": "address"
        },
        {
          "internalType": "uint256",
          "name": "tokenCollateral",
          "type": "uint256"
        }
      ],
      "name": "createDao",
      "outputs": [],
      "stateMutability": "nonpayable",
      "type": "function"
    },
    {
      "inputs": [],
      "name": "defaultChallengePeriodSeconds",
      "outputs": [
        {
          "internalType": "uint256",
          "name": "",
          "type": "uint256"
        }
      ],
      "stateMutability": "view",
      "type": "function"
    },
    {
      "inputs": [],
      "name": "nativeCollateral",
      "outputs": [
        {
          "internalType": "uint256",
          "name": "",
          "type": "uint256"
        }
      ],
      "stateMutability": "view",
      "type": "function"
    }
  ],
  "transactionHash": "0x389cc0f6d2156737e35ad67bf2307b13c3727d0b28429787766d7916e175bd6b",
  "args": [],
  "numDeployments": 1,
  "solcInputHash": "cda1079c0ec7aa9519c537fb093da964",
  "bytecode": "0x608080604052346100165761351c908161001c8239f35b600080fdfe60806040818152600436101561001457600080fd5b600091823560e01c9081630f11b6791461018e575080634ddd4b3d146100635763773fd6e21461004357600080fd5b3461005f578160031936011261005f57602090516203f4808152f35b5080fd5b503461005f578060031936011261005f576001600160a01b036004358181169081900361018a57825190613336908183019183831067ffffffffffffffff841117610176579183916080936101b18439815260243560208201526203f4808682015267016345785d8a0000606082015203019084f0801561016a5716908254600160401b811015610156576001810180855581101561014257838052602080852090910180546001600160a01b0319168417905590519182527f87fc1796dbc913ab997ce574688bcad88f5eb317373be9ec71de2bde33e5c83091a180f35b634e487b7160e01b84526032600452602484fd5b634e487b7160e01b84526041600452602484fd5b505051903d90823e3d90fd5b634e487b7160e01b87526041600452602487fd5b8380fd5b83903461005f578160031936011261005f578067016345785d8a000060209252f3fe60a03461011457601f61333638819003918201601f1916830192916001600160401b0391828511848610176100fe5781608092859260409788528339810103126101145781516001600160a01b03928382169182900361011457602081015190606086820151910151916001600055600255600355600455835191610f459081840190848210908211176100fe5760209284926123f1843981520301906000f09081156100f357816020917f7e674bfd363a04ca3284fe16b63779e4dd9680669b56efb94d86fd1e95d2e13b93608052845191168152a1516122d7908161011a823960805181818161041201526106a70152f35b82513d6000823e3d90fd5b634e487b7160e01b600052604160045260246000fd5b600080fdfe60808060405260043610156200001f575b5036156200001d57600080fd5b005b600090813560e01c9081630f11b67914620008835750806313725f7d14620007bd578063150b7a02146200075657806330b4729314620006d657806333e0ff5d146200068f5780633c28b73c14620006735780634b915bfb14620002b257806361fd18c014620001b65780637347d0f4146200019a57806381482328146200017a578063c6227bb0146200010a578063e84dce3014620000e65763fb60129403620000105734620000e35780600319360112620000e3576020600354604051908152f35b80fd5b5034620000e35762000104620000fc36620009be565b919062000a18565b60035580f35b5034620000e3576020366003190112620000e357600435906001600160401b038211620000e3576020620001423660048501620008ed565b81620001586040519283815193849201620009f3565b600190820190815281900382019020546040516001600160a01b039091168152f35b5034620000e35780600319360112620000e3576020600254604051908152f35b5034620000e357620001b0620000fc36620009be565b60025580f35b5034620000e357620001dc60206044620001d03662000964565b91939295909562000a18565b60405163a9059cbb60e01b81526001600160a01b039586166004820152602481019190915293849283918791165af1908115620002a757829162000262575b5015620002255780f35b60405162461bcd60e51b8152602060048201526015602482015274115490cc8c081d1c985b9cd9995c8819985a5b1959605a1b6044820152606490fd5b90506020813d82116200029e575b816200027f60209383620008cb565b810103126200029a575180151581036200029a57386200021b565b5080fd5b3d915062000270565b6040513d84823e3d90fd5b506060366003190112620000e3576004356001600160401b0381116200029a57620002e2903690600401620008ed565b6001600160401b03604435116200029a573660236044350112156200029a576001600160401b0360443560040135116200029a573660246044356004013560051b6044350101116200029a5760028254146200062e5760028255604051815162000351818360208601620009f3565b60019082019081528190036020019020546001600160a01b0316620005ef57600454906002549160035460405193846117cb8101106001600160401b036117cb87011117620005db576117cb62000ad78639602480356117cb870190815233602082015260408101949094526060840191909152608083019190915260e060a08301819052604435600481013591840182905261010060059290921b84018201958794909391909101918491015b60443560040135821062000553575050507f00000000000000000000000000000000000000000000000000000000000000006001600160a01b03166117cb820160c001819052938190039034f0928315620005465760405160208185516200046b8183858a01620009f3565b60019082019081520301902080546001600160a01b0319166001600160a01b039095169485179055803b156200029a5781809160246040518094819363019aa7d560e11b83528960048401525af18015620002a7576200052a575b505060607f49a1ee521a2f809b640c136b45f70eb7b0313e8c1323b85aa65da093f689589d9260405192839160408352620005118251809381604087015260208787019101620009f3565b6020830152601f01601f19168101030190a16001815580f35b6200053590620008a1565b62000542578238620004c6565b8280fd5b50604051903d90823e3d90fd5b6117cb8401870360ff1901815291959293509160443536036042190186351215620005d75760443586350190604460248301359201916001600160401b038111620005d3578036038313620005d3576020828280600196849695859652848401378b838284010152601f80199101160101970192019201869392620003ff565b8880fd5b8680fd5b634e487b7160e01b86526041600452602486fd5b60405162461bcd60e51b815260206004820152601760248201527650726f706f73616c20616c72656164792065786973747360481b6044820152606490fd5b60405162461bcd60e51b815260206004820152601f60248201527f5265656e7472616e637947756172643a207265656e7472616e742063616c6c006044820152606490fd5b5034620000e35762000689620000fc36620009be565b60045580f35b5034620000e35780600319360112620000e3576040517f00000000000000000000000000000000000000000000000000000000000000006001600160a01b03168152602090f35b5034620000e357620006f781620006ed3662000964565b9490919262000a18565b6001600160a01b0391821690813b156200075257836064926040519687958694632142170760e11b865230600487015216602485015260448401525af18015620002a75762000744575080f35b6200074f90620008a1565b80f35b8380fd5b5034620000e3576080366003190112620000e3576004356001600160a01b03811603620000e357620007876200094d565b506064356001600160401b0381116200029a57620007aa903690600401620008ed565b50604051630a85bd0160e11b8152602090f35b5034620000e3576060366003190112620000e3576004356001600160401b0381116200029a57620007f3903690600401620008ed565b620007fd6200094d565b604435906001600160a01b031680156200084c5783808080948194620008238862000a18565b82821562000842575bf115620008365780f35b604051903d90823e3d90fd5b506108fc6200082c565b60405162461bcd60e51b815260206004820152600f60248201526e496e76616c6964206164647265737360881b6044820152606490fd5b9050346200029a57816003193601126200029a576020906004548152f35b6001600160401b038111620008b557604052565b634e487b7160e01b600052604160045260246000fd5b90601f801991011681019081106001600160401b03821117620008b557604052565b81601f8201121562000948578035906001600160401b038211620008b5576040519262000925601f8401601f191660200185620008cb565b828452602083830101116200094857816000926020809301838601378301015290565b600080fd5b602435906001600160a01b03821682036200094857565b60806003198201126200094857600435906001600160401b03821162000948576200099291600401620008ed565b906001600160a01b03906024358281168103620009485791604435908116810362000948579060643590565b60406003198201126200094857600435906001600160401b0382116200094857620009ec91600401620008ed565b9060243590565b60005b83811062000a075750506000910152565b8181015183820152602001620009f6565b602062000a2f6040519283815193849201620009f3565b60019082019081528190036020019020546001600160a01b0316801562000a9757330362000a5957565b60405162461bcd60e51b815260206004820152601660248201527513db9b1e481c1c9bdc1bdcd85b0818d85b8818d85b1b60521b6044820152606490fd5b60405162461bcd60e51b8152602060048201526017602482015276141c9bdc1bdcd85b08191bd95cc81b9bdd08195e1a5cdd604a1b6044820152606490fdfe610180604052620017cb803803806200001881620005f1565b92833960e08282810103126200052c57815160208301516001600160a01b039290919083831683036200052c5760408501516060860151608087015160a08801519197919290916001600160401b0384116200052c57848101601f8583010112156200052c5780840151936001600160401b03851162000454578460051b6020620000a5818301620005f1565b809781520180978085016020848688010101116200052c57602084860101915b602084868801010183106200053157505050505060c001519487861686036200052c57600160005560ff196005541660055587871615620004f5576080528560a05260e05261010096875260c05251906801000000000000000082116200045457600154826001558083106200046a575b5060016000908152600080516020620017ab83398151915292915b8282106200032457505050506101609142835283610140921682526101209333855260e0513410620002df5760e0518015620002845734066200029a5760e05180156200028457340491166000526004602052806040600020556002556040519261113d94856200066e863960805185610675015260a051858181610a670152610d69015260c05185818161010c0152818161021a01528181610463015281816106b20152818161080d0152818161099401526110ac015260e0518581816105470152818161085401528181610ae50152610e120152518481816102c00152610718015251838181610a1d0152610dcc01525182818161027a0152610d010152518181816101cd0152818161023b01528181610484015281816106d30152818161082e015281816109b501526110cd0152f35b634e487b7160e01b600052601260045260246000fd5b60405162461bcd60e51b815260206004820152601460248201527f436f6c6c61746572616c20696e636f72726563740000000000000000000000006044820152606490fd5b60405162461bcd60e51b815260206004820152601460248201527f436f6c6c61746572616c20746f6f20736d616c6c0000000000000000000000006044820152606490fd5b80518051906001600160401b038211620004545762000344865462000617565b601f811162000412575b50602090601f83116001146200039f57928260019493602093869560009262000393575b5050600019600383901b1c191690841b1787555b0194019101909262000151565b01519050388062000372565b90601f198316918760005260206000209260005b818110620003f95750936020936001969387969383889510620003df575b505050811b01875562000386565b015160001960f88460031b161c19169055388080620003d1565b92936020600181928786015181550195019301620003b3565b6200044290876000526020600020601f850160051c8101916020861062000449575b601f0160051c019062000654565b386200034e565b909150819062000434565b634e487b7160e01b600052604160045260246000fd5b6001600052600080516020620017ab8339815191529081019083015b81811062000495575062000136565b80620004a46001925462000617565b80620004b3575b500162000486565b601f81118314620004cb5750600081555b38620004ab565b600090828252620004eb601f60208420920160051c820185830162000654565b81835555620004c4565b60405162461bcd60e51b815260206004820152600f60248201526e496e76616c6964206164647265737360881b6044820152606490fd5b600080fd5b82516001600160401b0381116200052c57828701603f82888a01010112156200052c578686018101602001516001600160401b038111620005dc5762000581601f8201601f1916602001620005f1565b91818352848901604083838b8d01010101116200052c5760005b888a848310620005c15750506000602093850184015250509082529283019201620000c5565b8284602094936040930101010151828287010152016200059b565b60246000634e487b7160e01b81526041600452fd5b6040519190601f01601f191682016001600160401b038111838210176200045457604052565b90600182811c9216801562000649575b60208310146200063357565b634e487b7160e01b600052602260045260246000fd5b91607f169162000627565b81811062000660575050565b600081556001016200065456fe608060408181526004918236101561001657600080fd5b600092833560e01c9182630f11b67914610dfb575081632131c68c14610db7578163279dbe0714610d985781632cee6a6b14610d5457816331a38c8914610d3057816333e0ff5d14610cec578163373058b81461097e57816338d7497d146109585781634b9f5c98146107eb5781636545645b1461073b5781638148232814610700578163a4fd6f5614610698578163ada9e4441461065d578163b88a802f1461044e578163ce583e92146101f0578163cea3e530146101b5578163d8bff5a51461015157508063efc8514c146101335763fb601294146100f657600080fd5b3461012f578160031936011261012f57602090517f00000000000000000000000000000000000000000000000000000000000000008152f35b5080fd5b503461012f578160031936011261012f576020906003549051908152f35b9050346101b15760203660031901126101b15780356001600160a01b038116908190036101ad57928291608094825260205220908154916001810154916003600283015492015492815194855260208501528301526060820152f35b8380fd5b8280fd5b50503461012f578160031936011261012f57602090517f00000000000000000000000000000000000000000000000000000000000000008152f35b83833461012f57602092836003193601126101b15780358015159081810361039f5761026761025f7f00000000000000000000000000000000000000000000000000000000000000007f0000000000000000000000000000000000000000000000000000000000000000610e35565b421115610e58565b83516370a0823160e01b815233848201527f00000000000000000000000000000000000000000000000000000000000000006001600160a01b031691908781602481865afa8015610444578790610411575b6102e591507f000000000000000000000000000000000000000000000000000000000000000090610ec1565b80156103d1578487983389525285872090600282019182541593846103c4575b156103a3575061031f828261032494549155600254610f1d565b610e35565b6002555b610330578480f35b803b1561039f57604485928551968793849263bd041c4d60e01b8452338885015260248401525af180156103955761036a575b8084938480f35b6001600160401b038311610382575052818080610363565b634e487b7160e01b845260419052602483fd5b82513d86823e3d90fd5b8480fd5b6103bc9250600361031f91018281549155600354610f1d565b600355610328565b6003820154159450610305565b855162461bcd60e51b8152808601899052601a602482015279151bdad95b8818dbdb1b185d195c985b081d1bdbc81cdb585b1b60321b6044820152606490fd5b508781813d831161043d575b6104278183610efc565b81010312610439576102e590516102b9565b8680fd5b503d61041d565b86513d89823e3d90fd5b9050826003193601126101b1576104af6104a87f00000000000000000000000000000000000000000000000000000000000000007f0000000000000000000000000000000000000000000000000000000000000000610e35565b4211610f2a565b3383528060205281832082516104c481610ecb565b815481526001820154602082019081526003600284015493868401948552015492606083019384526104f46110a7565b93841561064857508251905161050991610e35565b905b811561061257869461059e6105978796610591889761058c89986105868a998660001461060957600254945b871561060057600354915b61056d7f00000000000000000000000000000000000000000000000000000000000000008094610f76565b98610578888b610ea1565b9d50156105f8575051610f76565b94610f76565b610ec1565b90610e35565b9283610e35565b47146105f0575b3383526020526105c986832060036000918281558260018201558260028201550155565b8181156105e7575b3390f1156105dd575080f35b51903d90823e3d90fd5b506108fc6105d1565b4791506105a5565b905051610f76565b60025491610542565b60035494610537565b855162461bcd60e51b8152602081870152601060248201526f526577617264206e6f74206170706c7960801b6044820152606490fd5b61065791508251905190610e35565b9061050b565b50503461012f578160031936011261012f57602090517f00000000000000000000000000000000000000000000000000000000000000008152f35b50503461012f578160031936011261012f576020906106f77f00000000000000000000000000000000000000000000000000000000000000007f0000000000000000000000000000000000000000000000000000000000000000610e35565b42119051908152f35b50503461012f578160031936011261012f57602090517f00000000000000000000000000000000000000000000000000000000000000008152f35b8284346107e857806003193601126107e85790610756610f89565b8151928392602080850190808652845180925280838701938360051b880101950193805b8382106107875787870388f35b9193959092949650603f19888203018652838751805190818452845b8281106107d457505081838286838095600198010152601f801991011601019801960192018796959492939161077a565b8181018401518582018501528793016107a3565b80fd5b905060203660031901126101b15780359182151583036101ad5761085261025f7f00000000000000000000000000000000000000000000000000000000000000007f0000000000000000000000000000000000000000000000000000000000000000610e35565b7f000000000000000000000000000000000000000000000000000000000000000080341061091e576108848134610ea1565b6108e4576108929034610ec1565b913385526020528320916000146108c257816108b2826108bc9454610e35565b9055600254610e35565b60025580f35b60016108de92016108d4828254610e35565b9055600354610e35565b60035580f35b815162461bcd60e51b8152602081850152601460248201527310dbdb1b185d195c985b081a5b98dbdc9c9958dd60621b6044820152606490fd5b815162461bcd60e51b8152602081850152601460248201527310dbdb1b185d195c985b081d1bdbc81cdb585b1b60621b6044820152606490fd5b50503461012f578160031936011261012f576020906109756110a7565b90519015158152f35b919050826003193601126101b1576109d96104a87f00000000000000000000000000000000000000000000000000000000000000007f0000000000000000000000000000000000000000000000000000000000000000610e35565b6002835414610ca9576002835560059182549260ff8416610c6a576109fc6110a7565b15610c2f579290849160019485809260ff1916178155610a1a610f89565b847f0000000000000000000000000000000000000000000000000000000000000000935b610b34575b5050505060035415610a57575b5090505580f35b81808092610b0a60018060a01b037f0000000000000000000000000000000000000000000000000000000000000000169182845280602052878420906003895192610aa184610ecb565b805484528b810154602085015260028101548b85015201546060830152838552602052610ae288852060036000918281558260018201558260028201550155565b517f000000000000000000000000000000000000000000000000000000000000000090610f76565b90828215610b2b575bf115610b20578281610a50565b51913d9150823e3d90fd5b506108fc610b13565b90919293948251821015610c285750602088808284871b86010151838151910182895af13d15610c23573d6001600160401b038111610c1057885190610b83601f8201601f1916850183610efc565b81528a833d92013e5b15610bbc57506000198114610ba957879493929190870187610a3e565b634e487b7160e01b885260118552602488fd5b8560849188519162461bcd60e51b8352820152602960248201527f50726f706f73616c3a20756e6465726c79696e67207472616e73616374696f6e604482015268081c995d995c9d195960ba1b6064820152fd5b634e487b7160e01b8b526041885260248bfd5b610b8c565b9493610a43565b506020606492519162461bcd60e51b8352820152601560248201527450726f706f73616c20646964206e6f74207061737360581b6044820152fd5b506020606492519162461bcd60e51b83528201526019602482015278141c9bdc1bdcd85b08185b1c9958591e48195e1958dd5d1959603a1b6044820152fd5b906020606492519162461bcd60e51b8352820152601f60248201527f5265656e7472616e637947756172643a207265656e7472616e742063616c6c006044820152fd5b50503461012f578160031936011261012f57517f00000000000000000000000000000000000000000000000000000000000000006001600160a01b03168152602090f35b50503461012f578160031936011261012f5760209060ff6005541690519015158152f35b50503461012f578160031936011261012f57517f00000000000000000000000000000000000000000000000000000000000000006001600160a01b03168152602090f35b50503461012f578160031936011261012f576020906002549051908152f35b50503461012f578160031936011261012f57517f00000000000000000000000000000000000000000000000000000000000000006001600160a01b03168152602090f35b84903461012f578160031936011261012f576020907f00000000000000000000000000000000000000000000000000000000000000008152f35b91908201809211610e4257565b634e487b7160e01b600052601160045260246000fd5b15610e5f57565b60405162461bcd60e51b815260206004820152601a602482015279125cc81b9bdd081a5b8818da185b1b195b99d9481c195c9a5bd960321b6044820152606490fd5b8115610eab570690565b634e487b7160e01b600052601260045260246000fd5b8115610eab570490565b608081019081106001600160401b03821117610ee657604052565b634e487b7160e01b600052604160045260246000fd5b90601f801991011681019081106001600160401b03821117610ee657604052565b91908203918211610e4257565b15610f3157565b60405162461bcd60e51b815260206004820152601d60248201527f4973206e6f74206166746572206368616c6c656e676520706572696f640000006044820152606490fd5b81810292918115918404141715610e4257565b6001908154916001600160401b038311610ee6576040805193600592916020610fb683861b820188610efc565b8287528087019160008581528281209181945b868610610fdb57505050505050505050565b81519083918554808b1c908b8116801561109d575b8983108114611089579183918e8e9694838d9752918260001461106b575050600114611033575b506110258185960382610efc565b815201940195019492610fc9565b8888528388208896505b818710611054575050938401820193611025611017565b805483880186015293909501948c948a940161103d565b60ff19168685015291151590911b8201840195506110259050611017565b634e487b7160e01b88526022600452602488fd5b91607f1691610ff0565b6110f17f00000000000000000000000000000000000000000000000000000000000000007f0000000000000000000000000000000000000000000000000000000000000000610e35565b421115611102576002546003541090565b60009056fea26469706673582212202bc260bc7b0fc00c6378f164259e27e7da2f213a4d7cb860041fbf549fdaab5264736f6c63430008120033b10e2d527612073b26eecdfd717e6a320cf44b4afac2b0732d9fcbe2b7fa0cf6a2646970667358221220995ce2db4b0d3f3646155655e648eadd95c05bb2d853eaf413f70ba5137b3df764736f6c6343000812003360a0346100bd57601f610f4538819003918201601f19168301916001600160401b038311848410176100c2578084926020946040528339810103126100bd57516001600160a01b0390818116908190036100bd576000543360018060a01b0319821617600055604051923391167f8be0079c531659141344cd1fd0a4f28419497f9722a3daafe3b4186f6b6457e0600080a3608052610e6c90816100d9823960805181818160dc0152818161043f015281816107310152610a4f0152f35b600080fd5b634e487b7160e01b600052604160045260246000fdfe608060408181526004918236101561001657600080fd5b600092833560e01c918262f714ce146109a25750816303354faa1461096157816314ca6a971461091b57816327e235e3146108a6578163539e580a146108de57816370a08231146108a6578163715018a61461084c5781638cc6651f146108145781638da5cb5b146107ec578163b6b55f25146106f7578163bd041c4d146105b3578163d76add1214610231578163ec0d7b27146101d6578163f2fde38b1461010f575063fc0c546a146100c957600080fd5b3461010b578160031936011261010b57517f00000000000000000000000000000000000000000000000000000000000000006001600160a01b03168152602090f35b5080fd5b9050346101d25760203660031901126101d25761012a610b83565b90610133610be2565b6001600160a01b0391821692831561018057505082546001600160a01b0319811683178455167f8be0079c531659141344cd1fd0a4f28419497f9722a3daafe3b4186f6b6457e08380a380f35b906020608492519162461bcd60e51b8352820152602660248201527f4f776e61626c653a206e6577206f776e657220697320746865207a65726f206160448201526564647265737360d01b6064820152fd5b8280fd5b50503461010b57602036600319011261010b5761022d9161021c91906102239082906001600160a01b03610208610b83565b168152600260205220825193848092610d2f565b0383610d75565b5191829182610b9e565b0390f35b905082346105b0576020928360031936011261010b576001600160a01b039384610259610b83565b169485845284825261027060ff8486205416610c3a565b825163527eb7ab60e11b8152828187818a5afa9081156105a6578591610589575b50156105515782516338d7497d60e01b8082529590838183818b5afa908115610518579061021c92918791610534575b501561052257878652600284526102e08587205b865193848092610d2f565b8597865b83518110156103325780856102fc61032d9387610ded565b51169a8b8a52610315600591828a528a8c205490610d22565b9b8a5287528888812055600387528888812055610c7e565b6102e4565b5096909791508451908152838189818a5afa908115610518579061021c929187916104fb575b50156104e95786865260018452610376858720865193848092610d2f565b855b82518110156103c8578361038c8285610ded565b511687526003855285872080546000198101919082116103b557556103b090610c7e565b610378565b634e487b7160e01b895260118b52602489fd5b8689868861043b82878a8f808952600184526103e5868a20610e01565b808952600284526103f7868a20610e01565b885286835284882060ff1981541690558088541688865180968195829463a9059cbb60e01b84528c840160209093929193604081019460018060a01b031681520152565b03927f0000000000000000000000000000000000000000000000000000000000000000165af19081156104df5785916104b2575b5015610479578380f35b5162461bcd60e51b8152918201526015602482015274151bdad95b881d1c985b9cd9995c8819985a5b1959605a1b604482015260649150fd5b6104d29150833d85116104d8575b6104ca8183610d75565b810190610d97565b8561046f565b503d6104c0565b82513d87823e3d90fd5b868652600284526103768587206102d5565b6105129150853d87116104d8576104ca8183610d75565b89610358565b85513d88823e3d90fd5b878652600184526102e08587206102d5565b61054b9150853d87116104d8576104ca8183610d75565b896102c1565b825162461bcd60e51b81528086018390526012602482015271141c9bdc1bdcd85b081b9bdd08195b99195960721b6044820152606490fd5b6105a09150833d85116104d8576104ca8183610d75565b87610291565b84513d87823e3d90fd5b80fd5b8391503461010b578260031936011261010b576105ce610b83565b602490813580151581036106f3573385526020918483526105f460ff8888205416610c3a565b81156106e157338652600183528686209591955b6001600160a01b03828116939092815b835481101561067a57858561062d8387610ca3565b90549060031b1c16146106485761064390610c7e565b610618565b8a5162461bcd60e51b8152808a01889052600d818a01526c105b1c9958591e481d9bdd1959609a1b6044820152606490fd5b50868a600388888c958e6000146106c95761069e9033895260018452858920610cd1565b865252832090815492600184018094116106b85750505580f35b634e487b7160e01b85526011905283fd5b6106dc9033895260028452858920610cd1565b61069e565b33865260028352868620959195610608565b8480fd5b9050346101d257602090816003193601126107e85781813533865260058252848620610724828254610d22565b9055606460018060a01b037f000000000000000000000000000000000000000000000000000000000000000016938487518481527fcbc4a4091b012bb1329c38bbbb15455f5cac5aa3673da0a7f38cd61a4f495517863392a387875195869485936323b872dd60e01b8552339085015230602485015260448401525af19182156107db576107bb935084926107be575b5050610daf565b80f35b6107d49250803d106104d8576104ca8183610d75565b38806107b4565b50505051903d90823e3d90fd5b8380fd5b50503461010b578160031936011261010b57905490516001600160a01b039091168152602090f35b50503461010b57602036600319011261010b5760209181906001600160a01b0361083c610b83565b1681526003845220549051908152f35b83346105b057806003193601126105b057610865610be2565b80546001600160a01b03198116825581906001600160a01b03167f8be0079c531659141344cd1fd0a4f28419497f9722a3daafe3b4186f6b6457e08280a380f35b50503461010b57602036600319011261010b5760209181906001600160a01b036108ce610b83565b1681526005845220549051908152f35b9050346101d25760203660031901126101d25760209260ff918391906001600160a01b0361090a610b83565b168252855220541690519015158152f35b50503461010b57602036600319011261010b5761022d9161021c91906102239082906001600160a01b0361094d610b83565b168152600160205220825193848092610d2f565b9050346101d25760203660031901126101d25761097c610b83565b610984610be2565b6001600160a01b031683526020528120805460ff1916600117905580f35b909150346107e857826003193601126107e8576024356001600160a01b0381811694843593929091868203610b7f573388526020936003855283892054610b42575033885260058452848389205410610b085733885260058452828820805490868203918211610af55791869391869355338a526005835289858120805415610aed575b5050845163a9059cbb60e01b81526001600160a01b0390921697820197885260208801939093527f000000000000000000000000000000000000000000000000000000000000000092909216958290819060400103818a895af1908115610ae3577f4e5ba90310f16273bb12f3c33f23905e573b86df58a2895a525285d083bf043f939291610abc918991610ac6575b50610daf565b519283523392a480f35b610add9150843d86116104d8576104ca8183610d75565b38610ab6565b82513d89823e3d90fd5b558938610a26565b634e487b7160e01b8a526011885260248afd5b825162461bcd60e51b81528087018590526014602482015273496e73756666696369656e742062616c616e636560601b6044820152606490fd5b62461bcd60e51b815286810185905260196024820152785573657220686173206163746976652070726f706f73616c7360381b6044820152606490fd5b8780fd5b600435906001600160a01b0382168203610b9957565b600080fd5b6020908160408183019282815285518094520193019160005b828110610bc5575050505090565b83516001600160a01b031685529381019392810192600101610bb7565b6000546001600160a01b03163303610bf657565b606460405162461bcd60e51b815260206004820152602060248201527f4f776e61626c653a2063616c6c6572206973206e6f7420746865206f776e65726044820152fd5b15610c4157565b60405162461bcd60e51b8152602060048201526015602482015274141c9bdc1bdcd85b081b9bdd08185c1c1c9bdd9959605a1b6044820152606490fd5b6000198114610c8d5760010190565b634e487b7160e01b600052601160045260246000fd5b8054821015610cbb5760005260206000200190600090565b634e487b7160e01b600052603260045260246000fd5b8054600160401b811015610d0c57610cee91600182018155610ca3565b819291549060031b9160018060a01b03809116831b921b1916179055565b634e487b7160e01b600052604160045260246000fd5b91908201809211610c8d57565b90815480825260208092019260005281600020916000905b828210610d55575050505090565b83546001600160a01b031685529384019360019384019390910190610d47565b90601f8019910116810190811067ffffffffffffffff821117610d0c57604052565b90816020910312610b9957518015158103610b995790565b15610db657565b60405162461bcd60e51b815260206004820152600f60248201526e151c985b9cd9995c8819985a5b1959608a1b6044820152606490fd5b8051821015610cbb5760209160051b010190565b80549060009081815582610e1457505050565b815260208120918201915b828110610e2b57505050565b818155600101610e1f56fea2646970667358221220a3a325ed34f491a87613f6fb9a95559b1cd7d507634f73585e478efe313794ed64736f6c63430008120033a264697066735822122097b8a9fdea904d071cb9910a6451932f40537b3ab3aaab97b86fb75187be647c64736f6c63430008120033",
  "devdoc": {
    "kind": "dev",
    "methods": {},
    "version": 1
  },
  "userdoc": {
    "kind": "user",
    "methods": {},
    "version": 1
  },
  "storageLayout": {
    "storage": [
      {
        "astId": 5251,
        "contract": "contracts/dao/factory/ERC20DaoFactory.sol:ERC20DaoFactory",
        "label": "daos",
        "offset": 0,
        "slot": "0",
        "type": "t_array(t_contract(Dao)5140)dyn_storage"
      }
    ],
    "types": {
      "t_array(t_contract(Dao)5140)dyn_storage": {
        "base": "t_contract(Dao)5140",
        "encoding": "dynamic_array",
        "label": "contract Dao[]",
        "numberOfBytes": "32"
      },
      "t_contract(Dao)5140": {
        "encoding": "inplace",
        "label": "contract Dao",
        "numberOfBytes": "20"
      }
    }
  }
}