{
  "address": "0x9ea586C8B3eB2A0060C50DB4bd8d951cC34D1b11",
  "abi": [
    {
      "anonymous": false,
      "inputs": [
        {
          "indexed": false,
          "internalType": "address",
          "name": "daoAddress",
          "type": "address"
        }
      ],
      "name": "DaoCreated",
      "type": "event"
    },
    {
      "inputs": [
        {
          "internalType": "address",
          "name": "tokenAddress",
          "type": "address"
        },
        {
          "internalType": "uint256",
          "name": "tokenCollateral",
          "type": "uint256"
        }
      ],
      "name": "createDao",
      "outputs": [],
      "stateMutability": "nonpayable",
      "type": "function"
    },
    {
      "inputs": [],
      "name": "defaultChallengePeriodSeconds",
      "outputs": [
        {
          "internalType": "uint256",
          "name": "",
          "type": "uint256"
        }
      ],
      "stateMutability": "view",
      "type": "function"
    },
    {
      "inputs": [],
      "name": "defaultExtendChallengePeriodSeconds",
      "outputs": [
        {
          "internalType": "uint256",
          "name": "",
          "type": "uint256"
        }
      ],
      "stateMutability": "view",
      "type": "function"
    },
    {
      "inputs": [],
      "name": "nativeCollateral",
      "outputs": [
        {
          "internalType": "uint256",
          "name": "",
          "type": "uint256"
        }
      ],
      "stateMutability": "view",
      "type": "function"
    }
  ],
  "transactionHash": "0xbf64fd2086c5f94fcab87c62f0cec610dc020343eafb035f8bdbf3a182dc61a0",
  "args": [],
  "numDeployments": 3,
  "solcInputHash": "31814dd51f7870c41f693951f3cd0881",
  "bytecode": "0x6080806040523461001657613949908161001c8239f35b600080fdfe60806040818152600436101561001457600080fd5b600091823560e01c9081630f11b679146101bf575080631591a25a146101a25780634ddd4b3d1461006e5763773fd6e21461004e57600080fd5b3461006a578160031936011261006a57602090516203f4808152f35b5080fd5b503461006a578060031936011261006a576001600160a01b036004358181169081900361019e57825190613732908183019183831067ffffffffffffffff84111761018a5791839160a0936101e28439815260243560208201526203f4808682015267016345785d8a0000606082015262015180608082015203019084f0801561017e5716908254600160401b81101561016a576001810180855581101561015657838052602080852090910180546001600160a01b0319168417905590519182527f87fc1796dbc913ab997ce574688bcad88f5eb317373be9ec71de2bde33e5c83091a180f35b634e487b7160e01b84526032600452602484fd5b634e487b7160e01b84526041600452602484fd5b505051903d90823e3d90fd5b634e487b7160e01b87526041600452602487fd5b8380fd5b503461006a578160031936011261006a5760209051620151808152f35b83903461006a578160031936011261006a578067016345785d8a000060209252f3fe60a03461011c57601f61373238819003918201601f1916830192916001600160401b039182851184861017610106578160a0928592604097885283398101031261011c5781516001600160a01b03928382169182900361011c5760208101519085810151608060608301519201519260016000556002556003556004556005558351916111a2908184019084821090821117610106576020928492612590843981520301906000f09081156100fb57816020917f7e674bfd363a04ca3284fe16b63779e4dd9680669b56efb94d86fd1e95d2e13b93608052845191168152a15161246e9081610122823960805181818161041e01526106870152f35b82513d6000823e3d90fd5b634e487b7160e01b600052604160045260246000fd5b600080fdfe60808060405260043610156200001f575b5036156200001d57600080fd5b005b600090813560e01c9081630f11b67914620008635750806313725f7d146200079d578063150b7a02146200073657806330b4729314620006b657806333e0ff5d146200066f5780633c28b73c14620006535780634b915bfb14620002de57806361fd18c014620001e25780637347d0f414620001c65780638148232814620001a6578063c6227bb01462000136578063d89cf44a1462000116578063e84dce3014620000f25763fb60129403620000105734620000ef5780600319360112620000ef576020600354604051908152f35b80fd5b5034620000ef576200011062000108366200099e565b919062000a96565b60035580f35b5034620000ef5780600319360112620000ef576020600554604051908152f35b5034620000ef576020366003190112620000ef57600435906001600160401b038211620000ef5760206200016e3660048501620008cd565b81620001846040519283815193849201620009d3565b600190820190815281900382019020546040516001600160a01b039091168152f35b5034620000ef5780600319360112620000ef576020600254604051908152f35b5034620000ef57620001dc62000108366200099e565b60025580f35b5034620000ef576200020860206044620001fc3662000944565b91939295909562000a96565b60405163a9059cbb60e01b81526001600160a01b039586166004820152602481019190915293849283918791165af1908115620002d35782916200028e575b5015620002515780f35b60405162461bcd60e51b8152602060048201526015602482015274115490cc8c081d1c985b9cd9995c8819985a5b1959605a1b6044820152606490fd5b90506020813d8211620002ca575b81620002ab60209383620008ab565b81010312620002c657518015158103620002c6573862000247565b5080fd5b3d91506200029c565b6040513d84823e3d90fd5b506060366003190112620000ef576001600160401b036004358181116200064f576200030f903690600401620008cd565b81604435116200064f573660236044350112156200064f578160443560040135116200064f573660246044356004013560051b6044350101116200064f5760028354146200060a5760028355604051815162000370818360208601620009d3565b60019082019081528190036020019020546001600160a01b0316620005cb5760045491600254600354906005549460405193846118e4810110906118e486011117620005b7576118e462000b5585396024356118e48501523360206118e48601015260406118e48501015260606118e48401015260806118e4830101526101008060a06118e4840101528460246044350192806200041c846118e48301016044356004013587620009f8565b7f00000000000000000000000000000000000000000000000000000000000000006001600160a01b03166118e4830160c0810182905260e00198909852039034f0948515620005aa5760405160208187516200047c8183858c01620009d3565b60019082019081520301902080546001600160a01b0319166001600160a01b039097169687179055803b15620002c65781809160246040518094819363019aa7d560e11b83528b60048401525af18015620002d3576200058e575b50507f0c47b57627d9405203c438142910583f7e6fb83116720c898b9839c1e5a4f33093620005806004549360025495600354936005549460405198899889946200053a6101208088528251928380928a01526020610140809a019101620009d3565b601f80199101168a019360208b015260243560408b01523360608b015260808a015260a089015260c0880152818782030160e088015201906044356004013590620009f8565b918301520390a16001815580f35b620005999062000881565b620005a6578438620004d7565b8480fd5b50604051903d90823e3d90fd5b634e487b7160e01b87526041600452602487fd5b60405162461bcd60e51b815260206004820152601760248201527650726f706f73616c20616c72656164792065786973747360481b6044820152606490fd5b60405162461bcd60e51b815260206004820152601f60248201527f5265656e7472616e637947756172643a207265656e7472616e742063616c6c006044820152606490fd5b8280fd5b5034620000ef576200066962000108366200099e565b60045580f35b5034620000ef5780600319360112620000ef576040517f00000000000000000000000000000000000000000000000000000000000000006001600160a01b03168152602090f35b5034620000ef57620006d781620006cd3662000944565b9490919262000a96565b6001600160a01b0391821690813b156200073257836064926040519687958694632142170760e11b865230600487015216602485015260448401525af18015620002d35762000724575080f35b6200072f9062000881565b80f35b8380fd5b5034620000ef576080366003190112620000ef576004356001600160a01b03811603620000ef57620007676200092d565b506064356001600160401b038111620002c6576200078a903690600401620008cd565b50604051630a85bd0160e11b8152602090f35b5034620000ef576060366003190112620000ef576004356001600160401b038111620002c657620007d3903690600401620008cd565b620007dd6200092d565b604435906001600160a01b031680156200082c5783808080948194620008038862000a96565b82821562000822575bf115620008165780f35b604051903d90823e3d90fd5b506108fc6200080c565b60405162461bcd60e51b815260206004820152600f60248201526e496e76616c6964206164647265737360881b6044820152606490fd5b905034620002c65781600319360112620002c6576020906004548152f35b6001600160401b0381116200089557604052565b634e487b7160e01b600052604160045260246000fd5b90601f801991011681019081106001600160401b038211176200089557604052565b81601f8201121562000928578035906001600160401b03821162000895576040519262000905601f8401601f191660200185620008ab565b828452602083830101116200092857816000926020809301838601378301015290565b600080fd5b602435906001600160a01b03821682036200092857565b60806003198201126200092857600435906001600160401b03821162000928576200097291600401620008cd565b906001600160a01b03906024358281168103620009285791604435908116810362000928579060643590565b60406003198201126200092857600435906001600160401b0382116200092857620009cc91600401620008cd565b9060243590565b60005b838110620009e75750506000910152565b8181015183820152602001620009d6565b8183526020600583901b84018101939192906000818401855b84831062000a23575050505050505090565b90919293949596601f19808883030184528835601e19843603018112156200092857830186810190356001600160401b038111620009285780360382136200092857838893601f83808796879660019a528686013760008582860101520116010199019301930191959493929062000a11565b602062000aad6040519283815193849201620009d3565b60019082019081528190036020019020546001600160a01b0316801562000b1557330362000ad757565b60405162461bcd60e51b815260206004820152601660248201527513db9b1e481c1c9bdc1bdcd85b0818d85b8818d85b1b60521b6044820152606490fd5b60405162461bcd60e51b8152602060048201526017602482015276141c9bdc1bdcd85b08191bd95cc81b9bdd08195e1a5cdd604a1b6044820152606490fdfe6101a0604052620018e4620000168138036200065b565b806101605281803803913961016051813803810161010082820312620001a2578151602083015190936001600160a01b0382168203620001a2576040840151606085015161018052608085015160a0860151959094906001600160401b038711620001a257860190601f82011215620001a25751956001600160401b0387116200058357620000ab60208860051b016200065b565b936020858981520194859061016051863803810160208c60051b8c8401010111620001a2578901602001965b6101605160208c60051b8c83010101891015620001bc578851906001600160401b038211620001a257818c8201019089380301603f82011215620001a257602001516001600160401b038111620001a7578b91896040838362000144601f8301601f19166020016200065b565b96828852610160519438038501940101010111620001a25760005b8d838210620001845750505091816000602080958195010152815201970196620000d7565b9060408184602094610160510101010151828287010152016200015f565b600080fd5b60246000634e487b7160e01b81526041600452fd5b50506101605160c08101519589916001600160a01b0388168803620001a25760e0015160016000556006805460ff19169055956001600160a01b0386161562000624576080528460a05260c0526101805160e052600155519068010000000000000000821162000583576002548260025580831062000599575b5060026000908152600080516020620018c483398151915292915b828210620004535750505050610140914283526101209360018060a01b03168452336101005260075560c05134106200040e5760c0518015620003b3573406620003c95760c0518015620003b3577f2f9952040a017f53cb65506910abf3e4adbfb209f705fa9d0f89dea21f5c9e8391608091340460018060a01b038216600052600560205280604060002055806003556040519160018060a01b0316825260016020830152604082015260006060820152a1604051906111ec9283620006d88439608051836106c8015260a051838181610ac80152610db8015260c0518381816105610152818161087501528181610b4a0152610e61015260e0518381816102b4015261074d015261010051838181610a5c0152610e1b01525182818161026f0152610d500152518181816101d701528181610228015281816104a2015281816107080152818161084701528181610a00015281816110fd015261117c0152f35b634e487b7160e01b600052601260045260246000fd5b60405162461bcd60e51b815260206004820152601460248201527f436f6c6c61746572616c20696e636f72726563740000000000000000000000006044820152606490fd5b60405162461bcd60e51b815260206004820152601460248201527f436f6c6c61746572616c20746f6f20736d616c6c0000000000000000000000006044820152606490fd5b80518051906001600160401b038211620005835762000473865462000681565b601f811162000541575b50602090601f8311600114620004ce579282600194936020938695600092620004c2575b5050600019600383901b1c191690841b1787555b0194019101909262000251565b015190508c80620004a1565b90601f198316918760005260206000209260005b8181106200052857509360209360019693879693838895106200050e575b505050811b018755620004b5565b015160001960f88460031b161c191690558c808062000500565b92936020600181928786015181550195019301620004e2565b6200057190876000526020600020601f850160051c8101916020861062000578575b601f0160051c0190620006be565b896200047d565b909150819062000563565b634e487b7160e01b600052604160045260246000fd5b6002600052600080516020620018c48339815191529081019083015b818110620005c4575062000236565b80620005d36001925462000681565b80620005e2575b5001620005b5565b601f81118314620005fa5750600081555b88620005da565b6000908282526200061a601f60208420920160051c8201858301620006be565b81835555620005f3565b60405162461bcd60e51b815260206004820152600f60248201526e496e76616c6964206164647265737360881b6044820152606490fd5b6040519190601f01601f191682016001600160401b038111838210176200058357604052565b90600182811c92168015620006b3575b60208310146200069d57565b634e487b7160e01b600052602260045260246000fd5b91607f169162000691565b818110620006ca575050565b60008155600101620006be56fe608060408181526004918236101561001657600080fd5b600092833560e01c9182630f11b67914610e4a575081632131c68c14610e06578163279dbe0714610de75781632cee6a6b14610da357816331a38c8914610d7f57816333e0ff5d14610d3b578163373058b8146109e557816338d7497d146109bf5781634b9f5c98146108205781636545645b146107705781638148232814610735578163a4fd6f56146106eb578163ada9e444146106b0578163b88a802f1461048a578163ce583e92146101fa578163cea3e530146101bf578163d89cf44a146101a0578163d8bff5a514610144578163efc8514c14610122575063fb6012941461010157600080fd5b3461011e578160031936011261011e576020906001549051908152f35b5080fd5b90503461014057826003193601126101405760209250549051908152f35b8280fd5b90503461014057602036600319011261014057356001600160a01b038116908190036101405782829160809452600560205220908154916001810154916003600283015492015492815194855260208501528301526060820152f35b50503461011e578160031936011261011e576020906007549051908152f35b50503461011e578160031936011261011e57602090517f00000000000000000000000000000000000000000000000000000000000000008152f35b905034610140576020918260031936011261048657813591821515908184036104825761025461024c6001547f0000000000000000000000000000000000000000000000000000000000000000610e84565b421115610ea7565b61025c6110f4565b82516370a0823160e01b815233828201527f00000000000000000000000000000000000000000000000000000000000000006001600160a01b0316908681602481855afa8015610478578890610445575b6102d991507f000000000000000000000000000000000000000000000000000000000000000090610f10565b94851561040557908792913384526005885285842087600282019182541593846103f8575b156103d95750610318828261031d94549155600354610f6c565b610e84565b6003555b610365575b827f2f9952040a017f53cb65506910abf3e4adbfb209f705fa9d0f89dea21f5c9e8360808989898981519333855284015282015260016060820152a180f35b803b15610140578290604486518095819363bd041c4d60e01b835233878401528860248401525af180156103cf5761039f575b8691610326565b6001600160401b0382979397116103bc5750825293816080610398565b634e487b7160e01b835260419052602482fd5b84513d89823e3d90fd5b6103f192506003610318910182815491558654610f6c565b8355610321565b60038201541594506102fe565b845162461bcd60e51b8152808401889052601a602482015279151bdad95b8818dbdb1b185d195c985b081d1bdbc81cdb585b1b60321b6044820152606490fd5b508681813d8311610471575b61045b8183610f4b565b8101031261046d576102d990516102ad565b8780fd5b503d610451565b85513d8a823e3d90fd5b8580fd5b8380fd5b905082600319360112610140576104cd6104c66001547f0000000000000000000000000000000000000000000000000000000000000000610e84565b4211610f79565b33835260056020528183209082516104e481610f1a565b82548152600183015460208201908152600360028501549486840195865201549360608301948552610514611174565b94851561069b57508251905161052991610e84565b915b8215610665576105b8936105a66105b1946105a08a98956105ab958760001461065d57600354955b88156106535754915b6105877f00000000000000000000000000000000000000000000000000000000000000008094610fc5565b98610592888b610ef0565b9c501561064b575051610fc5565b94610fc5565b610f10565b90610e84565b9182610e84565b4714610644575b33835260056020526105e582842060036000918281558260018201558260028201550155565b828082801561063a575b8280929181923390f11561062f57907f106f923f993c2149d49b4255ff723acafa1f2d94393f561d3eda32ae348f7241918151903382526020820152a180f35b5051903d90823e3d90fd5b6108fc91506105ef565b50476105bf565b905051610fc5565b506003549161055c565b855495610553565b855162461bcd60e51b8152602081860152601060248201526f526577617264206e6f74206170706c7960801b6044820152606490fd5b6106aa91508251905190610e84565b9161052b565b50503461011e578160031936011261011e57602090517f00000000000000000000000000000000000000000000000000000000000000008152f35b50503461011e578160031936011261011e5760209061072c6001547f0000000000000000000000000000000000000000000000000000000000000000610e84565b42119051908152f35b50503461011e578160031936011261011e57602090517f00000000000000000000000000000000000000000000000000000000000000008152f35b82843461081d578060031936011261081d579061078b610fd8565b8151928392602080850190808652845180925280838701938360051b880101950193805b8382106107bc5787870388f35b9193959092949650603f19888203018652838751805190818452845b82811061080957505081838286838095600198010152601f80199101160101980196019201879695949293916107af565b8181018401518582018501528793016107d8565b80fd5b9050602036600319011261014057803591821515928381036109bb5761086b61024c6001547f0000000000000000000000000000000000000000000000000000000000000000610e84565b6108736110f4565b7f0000000000000000000000000000000000000000000000000000000000000000803410610981576108a58134610ef0565b6109475791608093916108da7f2f9952040a017f53cb65506910abf3e4adbfb209f705fa9d0f89dea21f5c9e83969434610f10565b9233885260056020528288209160001461092457506108fa838254610e84565b905561090882600354610e84565b6003555b8051923384526020840152820152836060820152a180f35b90600101610933848254610e84565b9055610940838254610e84565b905561090c565b825162461bcd60e51b8152602081860152601460248201527310dbdb1b185d195c985b081a5b98dbdc9c9958dd60621b6044820152606490fd5b825162461bcd60e51b8152602081860152601460248201527310dbdb1b185d195c985b081d1bdbc81cdb585b1b60621b6044820152606490fd5b8480fd5b50503461011e578160031936011261011e576020906109dc611174565b90519015158152f35b9190508260031936011261014057600191610a246104c684547f0000000000000000000000000000000000000000000000000000000000000000610e84565b6002845414610cf9576002845560065460ff8116610cba57610a44611174565b15610c7f5760ff19168317600655610a5a610fd8565b7f000000000000000000000000000000000000000000000000000000000000000085855b610b91575b5050505415610abb575b60207fdf42bfa876a741bbe542cf1a563269e1390bf03901b5d433a6e8afd6ee36dbfe9151338152a1815580f35b8280808060018060a01b037f0000000000000000000000000000000000000000000000000000000000000000168082526005602052610b6f8683206003885191610b0483610f1a565b805483528a810154602084015260028101548a840152015460608201528284526005602052610b4788852060036000918281558260018201558260028201550155565b517f000000000000000000000000000000000000000000000000000000000000000090610fc5565b90828215610b88575bf1610a8d5751913d9150823e3d90fd5b506108fc610b78565b8251811015610c7a5760208780828460051b87010151838151910182875af13d15610c75573d6001600160401b038111610c6257875190610bdb601f8201601f1916850183610f4b565b815289833d92013e5b15610c0e57506000198114610bfb57850185610a7e565b634e487b7160e01b875260118452602487fd5b8460849187519162461bcd60e51b8352820152602960248201527f50726f706f73616c3a20756e6465726c79696e67207472616e73616374696f6e604482015268081c995d995c9d195960ba1b6064820152fd5b634e487b7160e01b8a526041875260248afd5b610be4565b610a83565b506020606492519162461bcd60e51b8352820152601560248201527450726f706f73616c20646964206e6f74207061737360581b6044820152fd5b506020606492519162461bcd60e51b83528201526019602482015278141c9bdc1bdcd85b08185b1c9958591e48195e1958dd5d1959603a1b6044820152fd5b6020606492519162461bcd60e51b8352820152601f60248201527f5265656e7472616e637947756172643a207265656e7472616e742063616c6c006044820152fd5b50503461011e578160031936011261011e57517f00000000000000000000000000000000000000000000000000000000000000006001600160a01b03168152602090f35b50503461011e578160031936011261011e5760209060ff6006541690519015158152f35b50503461011e578160031936011261011e57517f00000000000000000000000000000000000000000000000000000000000000006001600160a01b03168152602090f35b50503461011e578160031936011261011e576020906003549051908152f35b50503461011e578160031936011261011e57517f00000000000000000000000000000000000000000000000000000000000000006001600160a01b03168152602090f35b84903461011e578160031936011261011e576020907f00000000000000000000000000000000000000000000000000000000000000008152f35b91908201809211610e9157565b634e487b7160e01b600052601160045260246000fd5b15610eae57565b60405162461bcd60e51b815260206004820152601a602482015279125cc81b9bdd081a5b8818da185b1b195b99d9481c195c9a5bd960321b6044820152606490fd5b8115610efa570690565b634e487b7160e01b600052601260045260246000fd5b8115610efa570490565b608081019081106001600160401b03821117610f3557604052565b634e487b7160e01b600052604160045260246000fd5b90601f801991011681019081106001600160401b03821117610f3557604052565b91908203918211610e9157565b15610f8057565b60405162461bcd60e51b815260206004820152601d60248201527f4973206e6f74206166746572206368616c6c656e676520706572696f640000006044820152606490fd5b81810292918115918404141715610e9157565b600254906001600160401b038211610f35576040805192600591602061100283851b820187610f4b565b82865280860190600092600284528184209084935b868510611028575050505050505050565b8151869184549160019280841c9084811680156110ea575b89831081146110d65782845289949392918e9082156110b8575050600114611080575b50611072816001960382610f4b565b815201930194019391611017565b878b52838b2095508a905b8082106110a15750810183019450611072611063565b86548383018601529585019589949091019061108b565b60ff19168685015291151590911b8201840195506110729050611063565b634e487b7160e01b8c52602260045260248cfd5b91607f1691611040565b600154611121817f0000000000000000000000000000000000000000000000000000000000000000610e84565b610e0f198101908111610e915742116111375750565b60207f3cca71a947cd4d67d94cd84308fae5f35b54a8fc120b9522b9ede48f41954e7b916111686007548092610e84565b600155604051908152a1565b6111a06001547f0000000000000000000000000000000000000000000000000000000000000000610e84565b4211156111b1576003546004541090565b60009056fea26469706673582212202a50be443108de1a5af55c7c61770ff7468a060bfb2d6d16f038d66557537df564736f6c63430008120033405787fa12a823e0f2b7631cc41b3ba8828b3321ca811111fa75cd3aa3bb5acea2646970667358221220f2e8925a54405ef615b1934bd50ba1acb55b105c7f1fd2ee9edf803f0fd68a5964736f6c6343000812003360a0346100c957601f6111a238819003918201601f19168301916001600160401b038311848410176100ce578084926020946040528339810103126100c957516001600160a01b0390818116908190036100c9576000543360018060a01b0319821617600055604051923391167f8be0079c531659141344cd1fd0a4f28419497f9722a3daafe3b4186f6b6457e0600080a360016005556080526110bd90816100e5823960805181818160e7015281816103080152818161087801528181610c5d0152610d0f0152f35b600080fd5b634e487b7160e01b600052604160045260246000fdfe608060408181526004918236101561001657600080fd5b600092833560e01c918262f714ce14610b875750816303354faa14610b4657816314ca6a9714610b00578163150b7a0214610a58578163539e580a14610a1b57816370a08231146109e3578163715018a6146109895781638cc6651f146109515781638da5cb5b14610929578163b6b55f2514610810578163bd041c4d146106cc578163cbf1304d14610673578163d76add121461023c578163ec0d7b27146101e1578163f2fde38b1461011a575063fc0c546a146100d457600080fd5b34610116578160031936011261011657517f00000000000000000000000000000000000000000000000000000000000000006001600160a01b03168152602090f35b5080fd5b9050346101dd5760203660031901126101dd57610135610df5565b9061013e610ec9565b6001600160a01b0391821692831561018b57505082546001600160a01b0319811683178455167f8be0079c531659141344cd1fd0a4f28419497f9722a3daafe3b4186f6b6457e08380a380f35b906020608492519162461bcd60e51b8352820152602660248201527f4f776e61626c653a206e6577206f776e657220697320746865207a65726f206160448201526564647265737360d01b6064820152fd5b8280fd5b5050346101165760203660031901126101165761023891610227919061022e9082906001600160a01b03610213610df5565b168152600260205220825193848092610fc5565b0383610e79565b5191829182610e0b565b0390f35b9050346101dd576020918260031936011261066f57610259610df5565b60026005541461062d5760026005556001600160a01b03908116808652838552828620546102899060ff16610f21565b825163527eb7ab60e11b815285818681855afa908115610623578791610606575b50156105ce5782516338d7497d60e01b808252919086818781855afa9081156105c45788916105a7575b501561058c57808752600286526102fc6103038589209791979392935b865198898092610fc5565b0388610e79565b8791847f000000000000000000000000000000000000000000000000000000000000000016935b885184101561045a5790839291866103438c968c611045565b51169182865260069a8b85528987208a519081988992888354918281520192825288822091905b89818310610442575050505090610382910388610e79565b8c5b8751811015610406578d610398828a611045565b51908b815416918b3b15610116578b8f938f6103cb9585915196879586948593632142170760e11b85523090850161100b565b03925af180156103fa57906103e692916103eb575b50610f65565b610384565b6103f490610e4f565b386103e0565b8f8d51903d90823e3d90fd5b509491939a61043893919650818d528b526104288c8a81208054918155611059565b8b5260038a528a88812055610f65565b929097919761032a565b6001919293949082918654815201940192019061036a565b898784888b95835190815282818881895afa908115610582578591610555575b5015610540578484526001825261049c6104a38486205b855192838092610fc5565b0382610e79565b845b81518110156104f557826104b98284611045565b511686526003845284862080546000198101919082116104e257556104dd90610f65565b6104a5565b634e487b7160e01b885260118a52602488fd5b50505084908480855260018252610513848620805490878155611059565b8085526002825261052b848620805490878155611059565b8452528120805460ff19169055600160055580f35b8484526002825261049c6104a3848620610491565b6105759150833d851161057b575b61056d8183610e79565b81019061102d565b8761047a565b503d610563565b84513d87823e3d90fd5b808752600186526102fc6103038589209791979392936102f1565b6105be9150873d891161057b5761056d8183610e79565b386102d4565b85513d8a823e3d90fd5b825162461bcd60e51b81528085018690526012602482015271141c9bdc1bdcd85b081b9bdd08195b99195960721b6044820152606490fd5b61061d9150863d881161057b5761056d8183610e79565b386102aa565b84513d89823e3d90fd5b5091606492519162461bcd60e51b8352820152601f60248201527f5265656e7472616e637947756172643a207265656e7472616e742063616c6c006044820152fd5b8380fd5b50503461011657806003193601126101165761068d610df5565b6001600160a01b031682526006602052808220805460243593908410156106c957506020926106bb91610e9b565b91905490519160031b1c8152f35b80fd5b839150346101165782600319360112610116576106e7610df5565b6024908135801515810361080c5733855260209184835261070d60ff8888205416610f21565b81156107fa57338652600183528686209591955b6001600160a01b03828116939092815b83548110156107935785856107468387610e9b565b90549060031b1c16146107615761075c90610f65565b610731565b8a5162461bcd60e51b8152808a01889052600d818a01526c105b1c9958591e481d9bdd1959609a1b6044820152606490fd5b50868a600388888c958e6000146107e2576107b79033895260018452858920610f8a565b865252832090815492600184018094116107d15750505580f35b634e487b7160e01b85526011905283fd5b6107f59033895260028452858920610f8a565b6107b7565b33865260028352868620959195610721565b8480fd5b919050346101dd5760203660031901126101dd5733835260066020528083208054833591600160401b82101561091657826108568361086f9360018a9796018155610e9b565b90919082549060031b91821b91600019901b1916179055565b60018060a01b037f0000000000000000000000000000000000000000000000000000000000000000168084518381527fcbc4a4091b012bb1329c38bbbb15455f5cac5aa3673da0a7f38cd61a4f49551760203392a3803b156101dd576108ed94838551809781958294632142170760e11b845230903390850161100b565b03925af190811561090d5750610901575080f35b61090a90610e4f565b80f35b513d84823e3d90fd5b634e487b7160e01b865260418552602486fd5b505034610116578160031936011261011657905490516001600160a01b039091168152602090f35b5050346101165760203660031901126101165760209181906001600160a01b03610979610df5565b1681526003845220549051908152f35b83346106c957806003193601126106c9576109a2610ec9565b80546001600160a01b03198116825581906001600160a01b03167f8be0079c531659141344cd1fd0a4f28419497f9722a3daafe3b4186f6b6457e08280a380f35b5050346101165760203660031901126101165760209181906001600160a01b03610a0b610df5565b1681526006845220549051908152f35b9050346101dd5760203660031901126101dd5760209260ff918391906001600160a01b03610a47610df5565b168252855220541690519015158152f35b8284346106c95760803660031901126106c957610a73610df5565b50610a7c610dda565b506064359267ffffffffffffffff908185116101dd57366023860112156101dd5784810135918211610aed5750825193610ac0601f8301601f191660200186610e79565b81855236602483830101116101dd57906020948160248794018483013701015251630a85bd0160e11b8152f35b634e487b7160e01b835260419052602482fd5b5050346101165760203660031901126101165761023891610227919061022e9082906001600160a01b03610b32610df5565b168152600160205220825193848092610fc5565b9050346101dd5760203660031901126101dd57610b61610df5565b610b69610ec9565b6001600160a01b031683526020528120805460ff1916600117905580f35b9091503461066f578260031936011261066f57813592610ba5610dda565b33865260039460209386855283882054610d9d575033875260069586855283882088895b338b52898852868b2054811015610d8e5784610be58285610e9b565b905490861b1c14610bfe57610bf990610f65565b610bc9565b9192939495969798505081549060001991828101908111610d7b5790610856610c2a610c379386610e9b565b905490871b1c9185610e9b565b81548015610d6857810192610c4c8484610e9b565b8154921b9290921b191690555560017f00000000000000000000000000000000000000000000000000000000000000006001600160a01b031687813b156106c95783610cb19286838b8a5196879586948593632142170760e11b85523090850161100b565b03925af180156105c457610d59575b505b610cfb5750505162461bcd60e51b815291820152600f60248201526e151bdad95b881b9bdd08199bdd5b99608a1b604482015260649150fd5b91519182526001600160a01b0390811693507f0000000000000000000000000000000000000000000000000000000000000000169133917f4e5ba90310f16273bb12f3c33f23905e573b86df58a2895a525285d083bf043f9190a480f35b610d6290610e4f565b38610cc0565b634e487b7160e01b8a526031895260248afd5b634e487b7160e01b8b5260118a5260248bfd5b50929394959697505050610cc2565b62461bcd60e51b815285810185905260196024820152785573657220686173206163746976652070726f706f73616c7360381b6044820152606490fd5b602435906001600160a01b0382168203610df057565b600080fd5b600435906001600160a01b0382168203610df057565b6020908160408183019282815285518094520193019160005b828110610e32575050505090565b83516001600160a01b031685529381019392810192600101610e24565b67ffffffffffffffff8111610e6357604052565b634e487b7160e01b600052604160045260246000fd5b90601f8019910116810190811067ffffffffffffffff821117610e6357604052565b8054821015610eb35760005260206000200190600090565b634e487b7160e01b600052603260045260246000fd5b6000546001600160a01b03163303610edd57565b606460405162461bcd60e51b815260206004820152602060248201527f4f776e61626c653a2063616c6c6572206973206e6f7420746865206f776e65726044820152fd5b15610f2857565b60405162461bcd60e51b8152602060048201526015602482015274141c9bdc1bdcd85b081b9bdd08185c1c1c9bdd9959605a1b6044820152606490fd5b6000198114610f745760010190565b634e487b7160e01b600052601160045260246000fd5b8054600160401b811015610e6357610fa791600182018155610e9b565b819291549060031b9160018060a01b03809116831b921b1916179055565b90815480825260208092019260005281600020916000905b828210610feb575050505090565b83546001600160a01b031685529384019360019384019390910190610fdd565b6001600160a01b03918216815291166020820152604081019190915260600190565b90816020910312610df057518015158103610df05790565b8051821015610eb35760209160051b010190565b81611062575050565b600090815260208120918201915b82811061107c57505050565b81815560010161107056fea2646970667358221220f1c4a649e2d6b15ac93fe8b8bc6faa684357bb87afd697efe7d208b6263d390864736f6c63430008120033a2646970667358221220b946aa6d839d91b9d6596b3152a2156cd6d7a8ddfeac8d31d700bb8fe89c511764736f6c63430008120033",
  "devdoc": {
    "kind": "dev",
    "methods": {},
    "version": 1
  },
  "userdoc": {
    "kind": "user",
    "methods": {},
    "version": 1
  },
  "storageLayout": {
    "storage": [
      {
        "astId": 1614,
        "contract": "contracts/dao/factory/NFTDaoFactory.sol:NFTDaoFactory",
        "label": "daos",
        "offset": 0,
        "slot": "0",
        "type": "t_array(t_contract(Dao)1497)dyn_storage"
      }
    ],
    "types": {
      "t_array(t_contract(Dao)1497)dyn_storage": {
        "base": "t_contract(Dao)1497",
        "encoding": "dynamic_array",
        "label": "contract Dao[]",
        "numberOfBytes": "32"
      },
      "t_contract(Dao)1497": {
        "encoding": "inplace",
        "label": "contract Dao",
        "numberOfBytes": "20"
      }
    }
  }
}