{
  "address": "0x0C0E24F5579c01f2056239DeD15cEc2848F34aB1",
  "abi": [
    {
      "anonymous": false,
      "inputs": [
        {
          "indexed": false,
          "internalType": "address",
          "name": "daoAddress",
          "type": "address"
        }
      ],
      "name": "DaoCreated",
      "type": "event"
    },
    {
      "inputs": [
        {
          "internalType": "address",
          "name": "tokenAddress",
          "type": "address"
        },
        {
          "internalType": "uint256",
          "name": "tokenCollateral",
          "type": "uint256"
        }
      ],
      "name": "createDao",
      "outputs": [],
      "stateMutability": "nonpayable",
      "type": "function"
    },
    {
      "inputs": [],
      "name": "defaultChallengePeriodSeconds",
      "outputs": [
        {
          "internalType": "uint256",
          "name": "",
          "type": "uint256"
        }
      ],
      "stateMutability": "view",
      "type": "function"
    },
    {
      "inputs": [],
      "name": "nativeCollateral",
      "outputs": [
        {
          "internalType": "uint256",
          "name": "",
          "type": "uint256"
        }
      ],
      "stateMutability": "view",
      "type": "function"
    }
  ],
  "transactionHash": "0xdf3858267417ed43641ec2fbe9053ce6e960b55213c6eef241ccba7dcd2ce252",
  "args": [],
  "numDeployments": 1,
  "solcInputHash": "cda1079c0ec7aa9519c537fb093da964",
  "bytecode": "0x6080806040523461001657613779908161001c8239f35b600080fdfe60806040818152600436101561001457600080fd5b600091823560e01c9081630f11b6791461018e575080634ddd4b3d146100635763773fd6e21461004357600080fd5b3461005f578160031936011261005f57602090516203f4808152f35b5080fd5b503461005f578060031936011261005f576001600160a01b036004358181169081900361018a57825190613593908183019183831067ffffffffffffffff841117610176579183916080936101b18439815260243560208201526203f4808682015267016345785d8a0000606082015203019084f0801561016a5716908254600160401b811015610156576001810180855581101561014257838052602080852090910180546001600160a01b0319168417905590519182527f87fc1796dbc913ab997ce574688bcad88f5eb317373be9ec71de2bde33e5c83091a180f35b634e487b7160e01b84526032600452602484fd5b634e487b7160e01b84526041600452602484fd5b505051903d90823e3d90fd5b634e487b7160e01b87526041600452602487fd5b8380fd5b83903461005f578160031936011261005f578067016345785d8a000060209252f3fe60a03461011457601f61359338819003918201601f1916830192916001600160401b0391828511848610176100fe5781608092859260409788528339810103126101145781516001600160a01b039283821691829003610114576020810151906060868201519101519160016000556002556003556004558351916111a29081840190848210908211176100fe5760209284926123f1843981520301906000f09081156100f357816020917f7e674bfd363a04ca3284fe16b63779e4dd9680669b56efb94d86fd1e95d2e13b93608052845191168152a1516122d7908161011a823960805181818161041201526106a70152f35b82513d6000823e3d90fd5b634e487b7160e01b600052604160045260246000fd5b600080fdfe60808060405260043610156200001f575b5036156200001d57600080fd5b005b600090813560e01c9081630f11b67914620008835750806313725f7d14620007bd578063150b7a02146200075657806330b4729314620006d657806333e0ff5d146200068f5780633c28b73c14620006735780634b915bfb14620002b257806361fd18c014620001b65780637347d0f4146200019a57806381482328146200017a578063c6227bb0146200010a578063e84dce3014620000e65763fb60129403620000105734620000e35780600319360112620000e3576020600354604051908152f35b80fd5b5034620000e35762000104620000fc36620009be565b919062000a18565b60035580f35b5034620000e3576020366003190112620000e357600435906001600160401b038211620000e3576020620001423660048501620008ed565b81620001586040519283815193849201620009f3565b600190820190815281900382019020546040516001600160a01b039091168152f35b5034620000e35780600319360112620000e3576020600254604051908152f35b5034620000e357620001b0620000fc36620009be565b60025580f35b5034620000e357620001dc60206044620001d03662000964565b91939295909562000a18565b60405163a9059cbb60e01b81526001600160a01b039586166004820152602481019190915293849283918791165af1908115620002a757829162000262575b5015620002255780f35b60405162461bcd60e51b8152602060048201526015602482015274115490cc8c081d1c985b9cd9995c8819985a5b1959605a1b6044820152606490fd5b90506020813d82116200029e575b816200027f60209383620008cb565b810103126200029a575180151581036200029a57386200021b565b5080fd5b3d915062000270565b6040513d84823e3d90fd5b506060366003190112620000e3576004356001600160401b0381116200029a57620002e2903690600401620008ed565b6001600160401b03604435116200029a573660236044350112156200029a576001600160401b0360443560040135116200029a573660246044356004013560051b6044350101116200029a5760028254146200062e5760028255604051815162000351818360208601620009f3565b60019082019081528190036020019020546001600160a01b0316620005ef57600454906002549160035460405193846117cb8101106001600160401b036117cb87011117620005db576117cb62000ad78639602480356117cb870190815233602082015260408101949094526060840191909152608083019190915260e060a08301819052604435600481013591840182905261010060059290921b84018201958794909391909101918491015b60443560040135821062000553575050507f00000000000000000000000000000000000000000000000000000000000000006001600160a01b03166117cb820160c001819052938190039034f0928315620005465760405160208185516200046b8183858a01620009f3565b60019082019081520301902080546001600160a01b0319166001600160a01b039095169485179055803b156200029a5781809160246040518094819363019aa7d560e11b83528960048401525af18015620002a7576200052a575b505060607f49a1ee521a2f809b640c136b45f70eb7b0313e8c1323b85aa65da093f689589d9260405192839160408352620005118251809381604087015260208787019101620009f3565b6020830152601f01601f19168101030190a16001815580f35b6200053590620008a1565b62000542578238620004c6565b8280fd5b50604051903d90823e3d90fd5b6117cb8401870360ff1901815291959293509160443536036042190186351215620005d75760443586350190604460248301359201916001600160401b038111620005d3578036038313620005d3576020828280600196849695859652848401378b838284010152601f80199101160101970192019201869392620003ff565b8880fd5b8680fd5b634e487b7160e01b86526041600452602486fd5b60405162461bcd60e51b815260206004820152601760248201527650726f706f73616c20616c72656164792065786973747360481b6044820152606490fd5b60405162461bcd60e51b815260206004820152601f60248201527f5265656e7472616e637947756172643a207265656e7472616e742063616c6c006044820152606490fd5b5034620000e35762000689620000fc36620009be565b60045580f35b5034620000e35780600319360112620000e3576040517f00000000000000000000000000000000000000000000000000000000000000006001600160a01b03168152602090f35b5034620000e357620006f781620006ed3662000964565b9490919262000a18565b6001600160a01b0391821690813b156200075257836064926040519687958694632142170760e11b865230600487015216602485015260448401525af18015620002a75762000744575080f35b6200074f90620008a1565b80f35b8380fd5b5034620000e3576080366003190112620000e3576004356001600160a01b03811603620000e357620007876200094d565b506064356001600160401b0381116200029a57620007aa903690600401620008ed565b50604051630a85bd0160e11b8152602090f35b5034620000e3576060366003190112620000e3576004356001600160401b0381116200029a57620007f3903690600401620008ed565b620007fd6200094d565b604435906001600160a01b031680156200084c5783808080948194620008238862000a18565b82821562000842575bf115620008365780f35b604051903d90823e3d90fd5b506108fc6200082c565b60405162461bcd60e51b815260206004820152600f60248201526e496e76616c6964206164647265737360881b6044820152606490fd5b9050346200029a57816003193601126200029a576020906004548152f35b6001600160401b038111620008b557604052565b634e487b7160e01b600052604160045260246000fd5b90601f801991011681019081106001600160401b03821117620008b557604052565b81601f8201121562000948578035906001600160401b038211620008b5576040519262000925601f8401601f191660200185620008cb565b828452602083830101116200094857816000926020809301838601378301015290565b600080fd5b602435906001600160a01b03821682036200094857565b60806003198201126200094857600435906001600160401b03821162000948576200099291600401620008ed565b906001600160a01b03906024358281168103620009485791604435908116810362000948579060643590565b60406003198201126200094857600435906001600160401b0382116200094857620009ec91600401620008ed565b9060243590565b60005b83811062000a075750506000910152565b8181015183820152602001620009f6565b602062000a2f6040519283815193849201620009f3565b60019082019081528190036020019020546001600160a01b0316801562000a9757330362000a5957565b60405162461bcd60e51b815260206004820152601660248201527513db9b1e481c1c9bdc1bdcd85b0818d85b8818d85b1b60521b6044820152606490fd5b60405162461bcd60e51b8152602060048201526017602482015276141c9bdc1bdcd85b08191bd95cc81b9bdd08195e1a5cdd604a1b6044820152606490fdfe610180604052620017cb803803806200001881620005f1565b92833960e08282810103126200052c57815160208301516001600160a01b039290919083831683036200052c5760408501516060860151608087015160a08801519197919290916001600160401b0384116200052c57848101601f8583010112156200052c5780840151936001600160401b03851162000454578460051b6020620000a5818301620005f1565b809781520180978085016020848688010101116200052c57602084860101915b602084868801010183106200053157505050505060c001519487861686036200052c57600160005560ff196005541660055587871615620004f5576080528560a05260e05261010096875260c05251906801000000000000000082116200045457600154826001558083106200046a575b5060016000908152600080516020620017ab83398151915292915b8282106200032457505050506101609142835283610140921682526101209333855260e0513410620002df5760e0518015620002845734066200029a5760e05180156200028457340491166000526004602052806040600020556002556040519261113d94856200066e863960805185610675015260a051858181610a670152610d69015260c05185818161010c0152818161021a01528181610463015281816106b20152818161080d0152818161099401526110ac015260e0518581816105470152818161085401528181610ae50152610e120152518481816102c00152610718015251838181610a1d0152610dcc01525182818161027a0152610d010152518181816101cd0152818161023b01528181610484015281816106d30152818161082e015281816109b501526110cd0152f35b634e487b7160e01b600052601260045260246000fd5b60405162461bcd60e51b815260206004820152601460248201527f436f6c6c61746572616c20696e636f72726563740000000000000000000000006044820152606490fd5b60405162461bcd60e51b815260206004820152601460248201527f436f6c6c61746572616c20746f6f20736d616c6c0000000000000000000000006044820152606490fd5b80518051906001600160401b038211620004545762000344865462000617565b601f811162000412575b50602090601f83116001146200039f57928260019493602093869560009262000393575b5050600019600383901b1c191690841b1787555b0194019101909262000151565b01519050388062000372565b90601f198316918760005260206000209260005b818110620003f95750936020936001969387969383889510620003df575b505050811b01875562000386565b015160001960f88460031b161c19169055388080620003d1565b92936020600181928786015181550195019301620003b3565b6200044290876000526020600020601f850160051c8101916020861062000449575b601f0160051c019062000654565b386200034e565b909150819062000434565b634e487b7160e01b600052604160045260246000fd5b6001600052600080516020620017ab8339815191529081019083015b81811062000495575062000136565b80620004a46001925462000617565b80620004b3575b500162000486565b601f81118314620004cb5750600081555b38620004ab565b600090828252620004eb601f60208420920160051c820185830162000654565b81835555620004c4565b60405162461bcd60e51b815260206004820152600f60248201526e496e76616c6964206164647265737360881b6044820152606490fd5b600080fd5b82516001600160401b0381116200052c57828701603f82888a01010112156200052c578686018101602001516001600160401b038111620005dc5762000581601f8201601f1916602001620005f1565b91818352848901604083838b8d01010101116200052c5760005b888a848310620005c15750506000602093850184015250509082529283019201620000c5565b8284602094936040930101010151828287010152016200059b565b60246000634e487b7160e01b81526041600452fd5b6040519190601f01601f191682016001600160401b038111838210176200045457604052565b90600182811c9216801562000649575b60208310146200063357565b634e487b7160e01b600052602260045260246000fd5b91607f169162000627565b81811062000660575050565b600081556001016200065456fe608060408181526004918236101561001657600080fd5b600092833560e01c9182630f11b67914610dfb575081632131c68c14610db7578163279dbe0714610d985781632cee6a6b14610d5457816331a38c8914610d3057816333e0ff5d14610cec578163373058b81461097e57816338d7497d146109585781634b9f5c98146107eb5781636545645b1461073b5781638148232814610700578163a4fd6f5614610698578163ada9e4441461065d578163b88a802f1461044e578163ce583e92146101f0578163cea3e530146101b5578163d8bff5a51461015157508063efc8514c146101335763fb601294146100f657600080fd5b3461012f578160031936011261012f57602090517f00000000000000000000000000000000000000000000000000000000000000008152f35b5080fd5b503461012f578160031936011261012f576020906003549051908152f35b9050346101b15760203660031901126101b15780356001600160a01b038116908190036101ad57928291608094825260205220908154916001810154916003600283015492015492815194855260208501528301526060820152f35b8380fd5b8280fd5b50503461012f578160031936011261012f57602090517f00000000000000000000000000000000000000000000000000000000000000008152f35b83833461012f57602092836003193601126101b15780358015159081810361039f5761026761025f7f00000000000000000000000000000000000000000000000000000000000000007f0000000000000000000000000000000000000000000000000000000000000000610e35565b421115610e58565b83516370a0823160e01b815233848201527f00000000000000000000000000000000000000000000000000000000000000006001600160a01b031691908781602481865afa8015610444578790610411575b6102e591507f000000000000000000000000000000000000000000000000000000000000000090610ec1565b80156103d1578487983389525285872090600282019182541593846103c4575b156103a3575061031f828261032494549155600254610f1d565b610e35565b6002555b610330578480f35b803b1561039f57604485928551968793849263bd041c4d60e01b8452338885015260248401525af180156103955761036a575b8084938480f35b6001600160401b038311610382575052818080610363565b634e487b7160e01b845260419052602483fd5b82513d86823e3d90fd5b8480fd5b6103bc9250600361031f91018281549155600354610f1d565b600355610328565b6003820154159450610305565b855162461bcd60e51b8152808601899052601a602482015279151bdad95b8818dbdb1b185d195c985b081d1bdbc81cdb585b1b60321b6044820152606490fd5b508781813d831161043d575b6104278183610efc565b81010312610439576102e590516102b9565b8680fd5b503d61041d565b86513d89823e3d90fd5b9050826003193601126101b1576104af6104a87f00000000000000000000000000000000000000000000000000000000000000007f0000000000000000000000000000000000000000000000000000000000000000610e35565b4211610f2a565b3383528060205281832082516104c481610ecb565b815481526001820154602082019081526003600284015493868401948552015492606083019384526104f46110a7565b93841561064857508251905161050991610e35565b905b811561061257869461059e6105978796610591889761058c89986105868a998660001461060957600254945b871561060057600354915b61056d7f00000000000000000000000000000000000000000000000000000000000000008094610f76565b98610578888b610ea1565b9d50156105f8575051610f76565b94610f76565b610ec1565b90610e35565b9283610e35565b47146105f0575b3383526020526105c986832060036000918281558260018201558260028201550155565b8181156105e7575b3390f1156105dd575080f35b51903d90823e3d90fd5b506108fc6105d1565b4791506105a5565b905051610f76565b60025491610542565b60035494610537565b855162461bcd60e51b8152602081870152601060248201526f526577617264206e6f74206170706c7960801b6044820152606490fd5b61065791508251905190610e35565b9061050b565b50503461012f578160031936011261012f57602090517f00000000000000000000000000000000000000000000000000000000000000008152f35b50503461012f578160031936011261012f576020906106f77f00000000000000000000000000000000000000000000000000000000000000007f0000000000000000000000000000000000000000000000000000000000000000610e35565b42119051908152f35b50503461012f578160031936011261012f57602090517f00000000000000000000000000000000000000000000000000000000000000008152f35b8284346107e857806003193601126107e85790610756610f89565b8151928392602080850190808652845180925280838701938360051b880101950193805b8382106107875787870388f35b9193959092949650603f19888203018652838751805190818452845b8281106107d457505081838286838095600198010152601f801991011601019801960192018796959492939161077a565b8181018401518582018501528793016107a3565b80fd5b905060203660031901126101b15780359182151583036101ad5761085261025f7f00000000000000000000000000000000000000000000000000000000000000007f0000000000000000000000000000000000000000000000000000000000000000610e35565b7f000000000000000000000000000000000000000000000000000000000000000080341061091e576108848134610ea1565b6108e4576108929034610ec1565b913385526020528320916000146108c257816108b2826108bc9454610e35565b9055600254610e35565b60025580f35b60016108de92016108d4828254610e35565b9055600354610e35565b60035580f35b815162461bcd60e51b8152602081850152601460248201527310dbdb1b185d195c985b081a5b98dbdc9c9958dd60621b6044820152606490fd5b815162461bcd60e51b8152602081850152601460248201527310dbdb1b185d195c985b081d1bdbc81cdb585b1b60621b6044820152606490fd5b50503461012f578160031936011261012f576020906109756110a7565b90519015158152f35b919050826003193601126101b1576109d96104a87f00000000000000000000000000000000000000000000000000000000000000007f0000000000000000000000000000000000000000000000000000000000000000610e35565b6002835414610ca9576002835560059182549260ff8416610c6a576109fc6110a7565b15610c2f579290849160019485809260ff1916178155610a1a610f89565b847f0000000000000000000000000000000000000000000000000000000000000000935b610b34575b5050505060035415610a57575b5090505580f35b81808092610b0a60018060a01b037f0000000000000000000000000000000000000000000000000000000000000000169182845280602052878420906003895192610aa184610ecb565b805484528b810154602085015260028101548b85015201546060830152838552602052610ae288852060036000918281558260018201558260028201550155565b517f000000000000000000000000000000000000000000000000000000000000000090610f76565b90828215610b2b575bf115610b20578281610a50565b51913d9150823e3d90fd5b506108fc610b13565b90919293948251821015610c285750602088808284871b86010151838151910182895af13d15610c23573d6001600160401b038111610c1057885190610b83601f8201601f1916850183610efc565b81528a833d92013e5b15610bbc57506000198114610ba957879493929190870187610a3e565b634e487b7160e01b885260118552602488fd5b8560849188519162461bcd60e51b8352820152602960248201527f50726f706f73616c3a20756e6465726c79696e67207472616e73616374696f6e604482015268081c995d995c9d195960ba1b6064820152fd5b634e487b7160e01b8b526041885260248bfd5b610b8c565b9493610a43565b506020606492519162461bcd60e51b8352820152601560248201527450726f706f73616c20646964206e6f74207061737360581b6044820152fd5b506020606492519162461bcd60e51b83528201526019602482015278141c9bdc1bdcd85b08185b1c9958591e48195e1958dd5d1959603a1b6044820152fd5b906020606492519162461bcd60e51b8352820152601f60248201527f5265656e7472616e637947756172643a207265656e7472616e742063616c6c006044820152fd5b50503461012f578160031936011261012f57517f00000000000000000000000000000000000000000000000000000000000000006001600160a01b03168152602090f35b50503461012f578160031936011261012f5760209060ff6005541690519015158152f35b50503461012f578160031936011261012f57517f00000000000000000000000000000000000000000000000000000000000000006001600160a01b03168152602090f35b50503461012f578160031936011261012f576020906002549051908152f35b50503461012f578160031936011261012f57517f00000000000000000000000000000000000000000000000000000000000000006001600160a01b03168152602090f35b84903461012f578160031936011261012f576020907f00000000000000000000000000000000000000000000000000000000000000008152f35b91908201809211610e4257565b634e487b7160e01b600052601160045260246000fd5b15610e5f57565b60405162461bcd60e51b815260206004820152601a602482015279125cc81b9bdd081a5b8818da185b1b195b99d9481c195c9a5bd960321b6044820152606490fd5b8115610eab570690565b634e487b7160e01b600052601260045260246000fd5b8115610eab570490565b608081019081106001600160401b03821117610ee657604052565b634e487b7160e01b600052604160045260246000fd5b90601f801991011681019081106001600160401b03821117610ee657604052565b91908203918211610e4257565b15610f3157565b60405162461bcd60e51b815260206004820152601d60248201527f4973206e6f74206166746572206368616c6c656e676520706572696f640000006044820152606490fd5b81810292918115918404141715610e4257565b6001908154916001600160401b038311610ee6576040805193600592916020610fb683861b820188610efc565b8287528087019160008581528281209181945b868610610fdb57505050505050505050565b81519083918554808b1c908b8116801561109d575b8983108114611089579183918e8e9694838d9752918260001461106b575050600114611033575b506110258185960382610efc565b815201940195019492610fc9565b8888528388208896505b818710611054575050938401820193611025611017565b805483880186015293909501948c948a940161103d565b60ff19168685015291151590911b8201840195506110259050611017565b634e487b7160e01b88526022600452602488fd5b91607f1691610ff0565b6110f17f00000000000000000000000000000000000000000000000000000000000000007f0000000000000000000000000000000000000000000000000000000000000000610e35565b421115611102576002546003541090565b60009056fea26469706673582212202bc260bc7b0fc00c6378f164259e27e7da2f213a4d7cb860041fbf549fdaab5264736f6c63430008120033b10e2d527612073b26eecdfd717e6a320cf44b4afac2b0732d9fcbe2b7fa0cf6a2646970667358221220fb6aa2ed80d11b9a1775359bb782b0b0f574c1708fdf2ee2ed701c4d1316fe2b64736f6c6343000812003360a0346100c957601f6111a238819003918201601f19168301916001600160401b038311848410176100ce578084926020946040528339810103126100c957516001600160a01b0390818116908190036100c9576000543360018060a01b0319821617600055604051923391167f8be0079c531659141344cd1fd0a4f28419497f9722a3daafe3b4186f6b6457e0600080a360016005556080526110bd90816100e5823960805181818160e7015281816103080152818161087801528181610c5d0152610d0f0152f35b600080fd5b634e487b7160e01b600052604160045260246000fdfe608060408181526004918236101561001657600080fd5b600092833560e01c918262f714ce14610b875750816303354faa14610b4657816314ca6a9714610b00578163150b7a0214610a58578163539e580a14610a1b57816370a08231146109e3578163715018a6146109895781638cc6651f146109515781638da5cb5b14610929578163b6b55f2514610810578163bd041c4d146106cc578163cbf1304d14610673578163d76add121461023c578163ec0d7b27146101e1578163f2fde38b1461011a575063fc0c546a146100d457600080fd5b34610116578160031936011261011657517f00000000000000000000000000000000000000000000000000000000000000006001600160a01b03168152602090f35b5080fd5b9050346101dd5760203660031901126101dd57610135610df5565b9061013e610ec9565b6001600160a01b0391821692831561018b57505082546001600160a01b0319811683178455167f8be0079c531659141344cd1fd0a4f28419497f9722a3daafe3b4186f6b6457e08380a380f35b906020608492519162461bcd60e51b8352820152602660248201527f4f776e61626c653a206e6577206f776e657220697320746865207a65726f206160448201526564647265737360d01b6064820152fd5b8280fd5b5050346101165760203660031901126101165761023891610227919061022e9082906001600160a01b03610213610df5565b168152600260205220825193848092610fc5565b0383610e79565b5191829182610e0b565b0390f35b9050346101dd576020918260031936011261066f57610259610df5565b60026005541461062d5760026005556001600160a01b03908116808652838552828620546102899060ff16610f21565b825163527eb7ab60e11b815285818681855afa908115610623578791610606575b50156105ce5782516338d7497d60e01b808252919086818781855afa9081156105c45788916105a7575b501561058c57808752600286526102fc6103038589209791979392935b865198898092610fc5565b0388610e79565b8791847f000000000000000000000000000000000000000000000000000000000000000016935b885184101561045a5790839291866103438c968c611045565b51169182865260069a8b85528987208a519081988992888354918281520192825288822091905b89818310610442575050505090610382910388610e79565b8c5b8751811015610406578d610398828a611045565b51908b815416918b3b15610116578b8f938f6103cb9585915196879586948593632142170760e11b85523090850161100b565b03925af180156103fa57906103e692916103eb575b50610f65565b610384565b6103f490610e4f565b386103e0565b8f8d51903d90823e3d90fd5b509491939a61043893919650818d528b526104288c8a81208054918155611059565b8b5260038a528a88812055610f65565b929097919761032a565b6001919293949082918654815201940192019061036a565b898784888b95835190815282818881895afa908115610582578591610555575b5015610540578484526001825261049c6104a38486205b855192838092610fc5565b0382610e79565b845b81518110156104f557826104b98284611045565b511686526003845284862080546000198101919082116104e257556104dd90610f65565b6104a5565b634e487b7160e01b885260118a52602488fd5b50505084908480855260018252610513848620805490878155611059565b8085526002825261052b848620805490878155611059565b8452528120805460ff19169055600160055580f35b8484526002825261049c6104a3848620610491565b6105759150833d851161057b575b61056d8183610e79565b81019061102d565b8761047a565b503d610563565b84513d87823e3d90fd5b808752600186526102fc6103038589209791979392936102f1565b6105be9150873d891161057b5761056d8183610e79565b386102d4565b85513d8a823e3d90fd5b825162461bcd60e51b81528085018690526012602482015271141c9bdc1bdcd85b081b9bdd08195b99195960721b6044820152606490fd5b61061d9150863d881161057b5761056d8183610e79565b386102aa565b84513d89823e3d90fd5b5091606492519162461bcd60e51b8352820152601f60248201527f5265656e7472616e637947756172643a207265656e7472616e742063616c6c006044820152fd5b8380fd5b50503461011657806003193601126101165761068d610df5565b6001600160a01b031682526006602052808220805460243593908410156106c957506020926106bb91610e9b565b91905490519160031b1c8152f35b80fd5b839150346101165782600319360112610116576106e7610df5565b6024908135801515810361080c5733855260209184835261070d60ff8888205416610f21565b81156107fa57338652600183528686209591955b6001600160a01b03828116939092815b83548110156107935785856107468387610e9b565b90549060031b1c16146107615761075c90610f65565b610731565b8a5162461bcd60e51b8152808a01889052600d818a01526c105b1c9958591e481d9bdd1959609a1b6044820152606490fd5b50868a600388888c958e6000146107e2576107b79033895260018452858920610f8a565b865252832090815492600184018094116107d15750505580f35b634e487b7160e01b85526011905283fd5b6107f59033895260028452858920610f8a565b6107b7565b33865260028352868620959195610721565b8480fd5b919050346101dd5760203660031901126101dd5733835260066020528083208054833591600160401b82101561091657826108568361086f9360018a9796018155610e9b565b90919082549060031b91821b91600019901b1916179055565b60018060a01b037f0000000000000000000000000000000000000000000000000000000000000000168084518381527fcbc4a4091b012bb1329c38bbbb15455f5cac5aa3673da0a7f38cd61a4f49551760203392a3803b156101dd576108ed94838551809781958294632142170760e11b845230903390850161100b565b03925af190811561090d5750610901575080f35b61090a90610e4f565b80f35b513d84823e3d90fd5b634e487b7160e01b865260418552602486fd5b505034610116578160031936011261011657905490516001600160a01b039091168152602090f35b5050346101165760203660031901126101165760209181906001600160a01b03610979610df5565b1681526003845220549051908152f35b83346106c957806003193601126106c9576109a2610ec9565b80546001600160a01b03198116825581906001600160a01b03167f8be0079c531659141344cd1fd0a4f28419497f9722a3daafe3b4186f6b6457e08280a380f35b5050346101165760203660031901126101165760209181906001600160a01b03610a0b610df5565b1681526006845220549051908152f35b9050346101dd5760203660031901126101dd5760209260ff918391906001600160a01b03610a47610df5565b168252855220541690519015158152f35b8284346106c95760803660031901126106c957610a73610df5565b50610a7c610dda565b506064359267ffffffffffffffff908185116101dd57366023860112156101dd5784810135918211610aed5750825193610ac0601f8301601f191660200186610e79565b81855236602483830101116101dd57906020948160248794018483013701015251630a85bd0160e11b8152f35b634e487b7160e01b835260419052602482fd5b5050346101165760203660031901126101165761023891610227919061022e9082906001600160a01b03610b32610df5565b168152600160205220825193848092610fc5565b9050346101dd5760203660031901126101dd57610b61610df5565b610b69610ec9565b6001600160a01b031683526020528120805460ff1916600117905580f35b9091503461066f578260031936011261066f57813592610ba5610dda565b33865260039460209386855283882054610d9d575033875260069586855283882088895b338b52898852868b2054811015610d8e5784610be58285610e9b565b905490861b1c14610bfe57610bf990610f65565b610bc9565b9192939495969798505081549060001991828101908111610d7b5790610856610c2a610c379386610e9b565b905490871b1c9185610e9b565b81548015610d6857810192610c4c8484610e9b565b8154921b9290921b191690555560017f00000000000000000000000000000000000000000000000000000000000000006001600160a01b031687813b156106c95783610cb19286838b8a5196879586948593632142170760e11b85523090850161100b565b03925af180156105c457610d59575b505b610cfb5750505162461bcd60e51b815291820152600f60248201526e151bdad95b881b9bdd08199bdd5b99608a1b604482015260649150fd5b91519182526001600160a01b0390811693507f0000000000000000000000000000000000000000000000000000000000000000169133917f4e5ba90310f16273bb12f3c33f23905e573b86df58a2895a525285d083bf043f9190a480f35b610d6290610e4f565b38610cc0565b634e487b7160e01b8a526031895260248afd5b634e487b7160e01b8b5260118a5260248bfd5b50929394959697505050610cc2565b62461bcd60e51b815285810185905260196024820152785573657220686173206163746976652070726f706f73616c7360381b6044820152606490fd5b602435906001600160a01b0382168203610df057565b600080fd5b600435906001600160a01b0382168203610df057565b6020908160408183019282815285518094520193019160005b828110610e32575050505090565b83516001600160a01b031685529381019392810192600101610e24565b67ffffffffffffffff8111610e6357604052565b634e487b7160e01b600052604160045260246000fd5b90601f8019910116810190811067ffffffffffffffff821117610e6357604052565b8054821015610eb35760005260206000200190600090565b634e487b7160e01b600052603260045260246000fd5b6000546001600160a01b03163303610edd57565b606460405162461bcd60e51b815260206004820152602060248201527f4f776e61626c653a2063616c6c6572206973206e6f7420746865206f776e65726044820152fd5b15610f2857565b60405162461bcd60e51b8152602060048201526015602482015274141c9bdc1bdcd85b081b9bdd08185c1c1c9bdd9959605a1b6044820152606490fd5b6000198114610f745760010190565b634e487b7160e01b600052601160045260246000fd5b8054600160401b811015610e6357610fa791600182018155610e9b565b819291549060031b9160018060a01b03809116831b921b1916179055565b90815480825260208092019260005281600020916000905b828210610feb575050505090565b83546001600160a01b031685529384019360019384019390910190610fdd565b6001600160a01b03918216815291166020820152604081019190915260600190565b90816020910312610df057518015158103610df05790565b8051821015610eb35760209160051b010190565b81611062575050565b600090815260208120918201915b82811061107c57505050565b81815560010161107056fea26469706673582212205ddeb4ca80bd56b5576192aaaf07b709b540a89934a83982e1e243c5f155397164736f6c63430008120033a2646970667358221220e07a106f5bf1c18f41758f66dcdfaacfec9f3574037160996cd498659447f73464736f6c63430008120033",
  "devdoc": {
    "kind": "dev",
    "methods": {},
    "version": 1
  },
  "userdoc": {
    "kind": "user",
    "methods": {},
    "version": 1
  },
  "storageLayout": {
    "storage": [
      {
        "astId": 5251,
        "contract": "contracts/dao/factory/NFTDaoFactory.sol:NFTDaoFactory",
        "label": "daos",
        "offset": 0,
        "slot": "0",
        "type": "t_array(t_contract(Dao)5140)dyn_storage"
      }
    ],
    "types": {
      "t_array(t_contract(Dao)5140)dyn_storage": {
        "base": "t_contract(Dao)5140",
        "encoding": "dynamic_array",
        "label": "contract Dao[]",
        "numberOfBytes": "32"
      },
      "t_contract(Dao)5140": {
        "encoding": "inplace",
        "label": "contract Dao",
        "numberOfBytes": "20"
      }
    }
  }
}